{
  "contractName": "Vote",
  "abi": [
    {
      "inputs": [],
      "stateMutability": "nonpayable",
      "type": "constructor"
    },
    {
      "anonymous": false,
      "inputs": [
        {
          "indexed": false,
          "internalType": "address",
          "name": "_candidate",
          "type": "address"
        },
        {
          "indexed": false,
          "internalType": "string",
          "name": "_name",
          "type": "string"
        },
        {
          "indexed": false,
          "internalType": "string",
          "name": "_ipfsHash",
          "type": "string"
        }
      ],
      "name": "CandidateRegistered",
      "type": "event"
    },
    {
      "anonymous": false,
      "inputs": [
        {
          "indexed": false,
          "internalType": "string",
          "name": "_firstname",
          "type": "string"
        },
        {
          "indexed": false,
          "internalType": "string",
          "name": "_lastName",
          "type": "string"
        },
        {
          "indexed": false,
          "internalType": "address",
          "name": "_address",
          "type": "address"
        },
        {
          "indexed": false,
          "internalType": "uint256",
          "name": "_timestamp",
          "type": "uint256"
        }
      ],
      "name": "ElectorateRegistered",
      "type": "event"
    },
    {
      "anonymous": false,
      "inputs": [
        {
          "indexed": false,
          "internalType": "address",
          "name": "_candidate",
          "type": "address"
        },
        {
          "indexed": false,
          "internalType": "address",
          "name": "_electorate",
          "type": "address"
        },
        {
          "indexed": false,
          "internalType": "uint256",
          "name": "_timestamp",
          "type": "uint256"
        }
      ],
      "name": "VoteCandidate",
      "type": "event"
    },
    {
      "inputs": [
        {
          "internalType": "address",
          "name": "",
          "type": "address"
        }
      ],
      "name": "electorates",
      "outputs": [
        {
          "internalType": "string",
          "name": "FirstName",
          "type": "string"
        },
        {
          "internalType": "string",
          "name": "LastName",
          "type": "string"
        },
        {
          "internalType": "string",
          "name": "MiddleName",
          "type": "string"
        },
        {
          "internalType": "string",
          "name": "stateOfOrigin",
          "type": "string"
        },
        {
          "internalType": "string",
          "name": "NIN",
          "type": "string"
        },
        {
          "internalType": "address",
          "name": "registrantAddress",
          "type": "address"
        },
        {
          "internalType": "uint256",
          "name": "timestamp",
          "type": "uint256"
        }
      ],
      "stateMutability": "view",
      "type": "function",
      "constant": true
    },
    {
      "inputs": [],
      "name": "owner",
      "outputs": [
        {
          "internalType": "address",
          "name": "",
          "type": "address"
        }
      ],
      "stateMutability": "view",
      "type": "function",
      "constant": true
    },
    {
      "inputs": [
        {
          "internalType": "address",
          "name": "",
          "type": "address"
        }
      ],
      "name": "registered",
      "outputs": [
        {
          "internalType": "bool",
          "name": "",
          "type": "bool"
        }
      ],
      "stateMutability": "view",
      "type": "function",
      "constant": true
    },
    {
      "inputs": [
        {
          "internalType": "uint256",
          "name": "",
          "type": "uint256"
        }
      ],
      "name": "registeredCandidatesArray",
      "outputs": [
        {
          "internalType": "string",
          "name": "name",
          "type": "string"
        },
        {
          "internalType": "string",
          "name": "ipfsHash",
          "type": "string"
        },
        {
          "internalType": "address",
          "name": "candidateAddress",
          "type": "address"
        }
      ],
      "stateMutability": "view",
      "type": "function",
      "constant": true
    },
    {
      "inputs": [
        {
          "internalType": "address",
          "name": "",
          "type": "address"
        }
      ],
      "name": "registeredCandidatesData",
      "outputs": [
        {
          "internalType": "string",
          "name": "name",
          "type": "string"
        },
        {
          "internalType": "string",
          "name": "ipfsHash",
          "type": "string"
        },
        {
          "internalType": "address",
          "name": "candidateAddress",
          "type": "address"
        }
      ],
      "stateMutability": "view",
      "type": "function",
      "constant": true
    },
    {
      "inputs": [
        {
          "internalType": "uint256",
          "name": "",
          "type": "uint256"
        }
      ],
      "name": "registeredElectoratesAddresses",
      "outputs": [
        {
          "internalType": "address",
          "name": "",
          "type": "address"
        }
      ],
      "stateMutability": "view",
      "type": "function",
      "constant": true
    },
    {
      "inputs": [
        {
          "internalType": "address",
          "name": "",
          "type": "address"
        }
      ],
      "name": "validateVote",
      "outputs": [
        {
          "internalType": "bool",
          "name": "",
          "type": "bool"
        }
      ],
      "stateMutability": "view",
      "type": "function",
      "constant": true
    },
    {
      "inputs": [
        {
          "internalType": "address",
          "name": "",
          "type": "address"
        }
      ],
      "name": "voteCount",
      "outputs": [
        {
          "internalType": "uint256",
          "name": "",
          "type": "uint256"
        }
      ],
      "stateMutability": "view",
      "type": "function",
      "constant": true
    },
    {
      "inputs": [
        {
          "internalType": "string",
          "name": "_firstname",
          "type": "string"
        },
        {
          "internalType": "string",
          "name": "_lastname",
          "type": "string"
        },
        {
          "internalType": "string",
          "name": "_middlename",
          "type": "string"
        },
        {
          "internalType": "string",
          "name": "_stateOfOrigin",
          "type": "string"
        },
        {
          "internalType": "string",
          "name": "_nin",
          "type": "string"
        }
      ],
      "name": "registerVoter",
      "outputs": [
        {
          "internalType": "bool",
          "name": "success",
          "type": "bool"
        }
      ],
      "stateMutability": "nonpayable",
      "type": "function"
    },
    {
      "inputs": [
        {
          "internalType": "address",
          "name": "_candidate",
          "type": "address"
        }
      ],
      "name": "voteCandidate",
      "outputs": [
        {
          "internalType": "bool",
          "name": "success",
          "type": "bool"
        }
      ],
      "stateMutability": "nonpayable",
      "type": "function"
    },
    {
      "inputs": [],
      "name": "noOfRegisteredVoters",
      "outputs": [
        {
          "internalType": "uint256",
          "name": "",
          "type": "uint256"
        }
      ],
      "stateMutability": "view",
      "type": "function",
      "constant": true
    },
    {
      "inputs": [
        {
          "internalType": "address",
          "name": "_candidate",
          "type": "address"
        },
        {
          "internalType": "string",
          "name": "_name",
          "type": "string"
        },
        {
          "internalType": "string",
          "name": "_ipfsHash",
          "type": "string"
        }
      ],
      "name": "registerCandidates",
      "outputs": [],
      "stateMutability": "nonpayable",
      "type": "function"
    },
    {
      "inputs": [],
      "name": "getAllCandidates",
      "outputs": [
        {
          "components": [
            {
              "internalType": "string",
              "name": "name",
              "type": "string"
            },
            {
              "internalType": "string",
              "name": "ipfsHash",
              "type": "string"
            },
            {
              "internalType": "address",
              "name": "candidateAddress",
              "type": "address"
            }
          ],
          "internalType": "struct Vote.CandidateRegistration[]",
          "name": "",
          "type": "tuple[]"
        }
      ],
      "stateMutability": "view",
      "type": "function",
      "constant": true
    }
  ],
  "bytecode": "0x608060405234801561001057600080fd5b50336000806101000a81548173ffffffffffffffffffffffffffffffffffffffff021916908373ffffffffffffffffffffffffffffffffffffffff160217905550611ead806100606000396000f3fe608060405234801561001057600080fd5b50600436106100cf5760003560e01c80638da5cb5b1161008c578063db34750211610066578063db3475021461024e578063e6896b0f1461027e578063e97a59d7146102b0578063f5061410146102e6576100cf565b80638da5cb5b146101e457806391d3d54414610202578063b2dd5c071461021e576100cf565b806326bb886d146100d45780632e6997fe146101045780634a3ae61d146101225780635a6ea770146101545780635e3cd7bc146101845780635ed5d2c3146101b4575b600080fd5b6100ee60048036038101906100e991906115dd565b610304565b6040516100fb9190611625565b60405180910390f35b61010c610579565b6040516101199190611801565b60405180910390f35b61013c60048036038101906101379190611859565b610752565b60405161014b939291906118df565b60405180910390f35b61016e600480360381019061016991906115dd565b6108bc565b60405161017b9190611625565b60405180910390f35b61019e600480360381019061019991906115dd565b6108dc565b6040516101ab9190611933565b60405180910390f35b6101ce60048036038101906101c99190611a83565b6108f4565b6040516101db9190611625565b60405180910390f35b6101ec610bbf565b6040516101f99190611b8a565b60405180910390f35b61021c60048036038101906102179190611ba5565b610be3565b005b610238600480360381019061023391906115dd565b610f6b565b6040516102459190611625565b60405180910390f35b61026860048036038101906102639190611859565b610f8b565b6040516102759190611b8a565b60405180910390f35b610298600480360381019061029391906115dd565b610fca565b6040516102a7939291906118df565b60405180910390f35b6102ca60048036038101906102c591906115dd565b611124565b6040516102dd9796959493929190611c30565b60405180910390f35b6102ee61142e565b6040516102fb9190611933565b60405180910390f35b60003373ffffffffffffffffffffffffffffffffffffffff16600660003373ffffffffffffffffffffffffffffffffffffffff1673ffffffffffffffffffffffffffffffffffffffff16815260200190815260200160002060050160009054906101000a900473ffffffffffffffffffffffffffffffffffffffff1673ffffffffffffffffffffffffffffffffffffffff16146103a057600080fd5b600860003373ffffffffffffffffffffffffffffffffffffffff1673ffffffffffffffffffffffffffffffffffffffff16815260200190815260200160002060009054906101000a900460ff16156103f757600080fd5b600073ffffffffffffffffffffffffffffffffffffffff168273ffffffffffffffffffffffffffffffffffffffff16141561043157600080fd5b600260008373ffffffffffffffffffffffffffffffffffffffff1673ffffffffffffffffffffffffffffffffffffffff16815260200190815260200160002060009054906101000a900460ff1661048757600080fd5b60018060008473ffffffffffffffffffffffffffffffffffffffff1673ffffffffffffffffffffffffffffffffffffffff16815260200190815260200160002060008282546104d69190611cf1565b925050819055506001600860003373ffffffffffffffffffffffffffffffffffffffff1673ffffffffffffffffffffffffffffffffffffffff16815260200190815260200160002060006101000a81548160ff0219169083151502179055507f3b3a13d341f1dcc09bb25c69c29d4687b50827aed5e9d7b676c5f5cb51569e3782334260405161056893929190611d47565b60405180910390a160019050919050565b60606005805480602002602001604051908101604052809291908181526020016000905b8282101561074957838290600052602060002090600302016040518060600160405290816000820180546105d090611dad565b80601f01602080910402602001604051908101604052809291908181526020018280546105fc90611dad565b80156106495780601f1061061e57610100808354040283529160200191610649565b820191906000526020600020905b81548152906001019060200180831161062c57829003601f168201915b5050505050815260200160018201805461066290611dad565b80601f016020809104026020016040519081016040528092919081815260200182805461068e90611dad565b80156106db5780601f106106b0576101008083540402835291602001916106db565b820191906000526020600020905b8154815290600101906020018083116106be57829003601f168201915b505050505081526020016002820160009054906101000a900473ffffffffffffffffffffffffffffffffffffffff1673ffffffffffffffffffffffffffffffffffffffff1673ffffffffffffffffffffffffffffffffffffffff16815250508152602001906001019061059d565b50505050905090565b6005818154811061076257600080fd5b906000526020600020906003020160009150905080600001805461078590611dad565b80601f01602080910402602001604051908101604052809291908181526020018280546107b190611dad565b80156107fe5780601f106107d3576101008083540402835291602001916107fe565b820191906000526020600020905b8154815290600101906020018083116107e157829003601f168201915b50505050509080600101805461081390611dad565b80601f016020809104026020016040519081016040528092919081815260200182805461083f90611dad565b801561088c5780601f106108615761010080835404028352916020019161088c565b820191906000526020600020905b81548152906001019060200180831161086f57829003601f168201915b5050505050908060020160009054906101000a900473ffffffffffffffffffffffffffffffffffffffff16905083565b60086020528060005260406000206000915054906101000a900460ff1681565b60016020528060005260406000206000915090505481565b6000600760003373ffffffffffffffffffffffffffffffffffffffff1673ffffffffffffffffffffffffffffffffffffffff16815260200190815260200160002060009054906101000a900460ff161561094d57600080fd5b6001600760003373ffffffffffffffffffffffffffffffffffffffff1673ffffffffffffffffffffffffffffffffffffffff16815260200190815260200160002060006101000a81548160ff0219169083151502179055506004339080600181540180825580915050600190039060005260206000200160009091909190916101000a81548173ffffffffffffffffffffffffffffffffffffffff021916908373ffffffffffffffffffffffffffffffffffffffff1602179055506040518060e001604052808781526020018681526020018581526020018481526020018381526020013373ffffffffffffffffffffffffffffffffffffffff16815260200142815250600660003373ffffffffffffffffffffffffffffffffffffffff1673ffffffffffffffffffffffffffffffffffffffff1681526020019081526020016000206000820151816000019080519060200190610aac92919061143b565b506020820151816001019080519060200190610ac992919061143b565b506040820151816002019080519060200190610ae692919061143b565b506060820151816003019080519060200190610b0392919061143b565b506080820151816004019080519060200190610b2092919061143b565b5060a08201518160050160006101000a81548173ffffffffffffffffffffffffffffffffffffffff021916908373ffffffffffffffffffffffffffffffffffffffff16021790555060c082015181600601559050507f5b4bc3316c5f99fec159455c323372bebfa9eb4a8451a1e3000241b390d8b0dd86863342604051610baa9493929190611ddf565b60405180910390a16001905095945050505050565b60008054906101000a900473ffffffffffffffffffffffffffffffffffffffff1681565b3373ffffffffffffffffffffffffffffffffffffffff1660008054906101000a900473ffffffffffffffffffffffffffffffffffffffff1673ffffffffffffffffffffffffffffffffffffffff1614610c3b57600080fd5b600073ffffffffffffffffffffffffffffffffffffffff168373ffffffffffffffffffffffffffffffffffffffff161415610c7557600080fd5b600260008473ffffffffffffffffffffffffffffffffffffffff1673ffffffffffffffffffffffffffffffffffffffff16815260200190815260200160002060009054906101000a900460ff1615610ccc57600080fd5b60405180606001604052808381526020018281526020018473ffffffffffffffffffffffffffffffffffffffff16815250600360008573ffffffffffffffffffffffffffffffffffffffff1673ffffffffffffffffffffffffffffffffffffffff1681526020019081526020016000206000820151816000019080519060200190610d5892919061143b565b506020820151816001019080519060200190610d7592919061143b565b5060408201518160020160006101000a81548173ffffffffffffffffffffffffffffffffffffffff021916908373ffffffffffffffffffffffffffffffffffffffff1602179055509050506005600360008573ffffffffffffffffffffffffffffffffffffffff1673ffffffffffffffffffffffffffffffffffffffff16815260200190815260200160002090806001815401808255809150506001900390600052602060002090600302016000909190919091506000820181600001908054610e3e90611dad565b610e499291906114c1565b506001820181600101908054610e5e90611dad565b610e699291906114c1565b506002820160009054906101000a900473ffffffffffffffffffffffffffffffffffffffff168160020160006101000a81548173ffffffffffffffffffffffffffffffffffffffff021916908373ffffffffffffffffffffffffffffffffffffffff16021790555050506001600260008573ffffffffffffffffffffffffffffffffffffffff1673ffffffffffffffffffffffffffffffffffffffff16815260200190815260200160002060006101000a81548160ff0219169083151502179055507f4f56d88836b720b9c3c946b2e9f5546b0162d4b9fa5b7957997d41433c5a90db838383604051610f5e93929190611e32565b60405180910390a1505050565b60076020528060005260406000206000915054906101000a900460ff1681565b60048181548110610f9b57600080fd5b906000526020600020016000915054906101000a900473ffffffffffffffffffffffffffffffffffffffff1681565b6003602052806000526040600020600091509050806000018054610fed90611dad565b80601f016020809104026020016040519081016040528092919081815260200182805461101990611dad565b80156110665780601f1061103b57610100808354040283529160200191611066565b820191906000526020600020905b81548152906001019060200180831161104957829003601f168201915b50505050509080600101805461107b90611dad565b80601f01602080910402602001604051908101604052809291908181526020018280546110a790611dad565b80156110f45780601f106110c9576101008083540402835291602001916110f4565b820191906000526020600020905b8154815290600101906020018083116110d757829003601f168201915b5050505050908060020160009054906101000a900473ffffffffffffffffffffffffffffffffffffffff16905083565b600660205280600052604060002060009150905080600001805461114790611dad565b80601f016020809104026020016040519081016040528092919081815260200182805461117390611dad565b80156111c05780601f10611195576101008083540402835291602001916111c0565b820191906000526020600020905b8154815290600101906020018083116111a357829003601f168201915b5050505050908060010180546111d590611dad565b80601f016020809104026020016040519081016040528092919081815260200182805461120190611dad565b801561124e5780601f106112235761010080835404028352916020019161124e565b820191906000526020600020905b81548152906001019060200180831161123157829003601f168201915b50505050509080600201805461126390611dad565b80601f016020809104026020016040519081016040528092919081815260200182805461128f90611dad565b80156112dc5780601f106112b1576101008083540402835291602001916112dc565b820191906000526020600020905b8154815290600101906020018083116112bf57829003601f168201915b5050505050908060030180546112f190611dad565b80601f016020809104026020016040519081016040528092919081815260200182805461131d90611dad565b801561136a5780601f1061133f5761010080835404028352916020019161136a565b820191906000526020600020905b81548152906001019060200180831161134d57829003601f168201915b50505050509080600401805461137f90611dad565b80601f01602080910402602001604051908101604052809291908181526020018280546113ab90611dad565b80156113f85780601f106113cd576101008083540402835291602001916113f8565b820191906000526020600020905b8154815290600101906020018083116113db57829003601f168201915b5050505050908060050160009054906101000a900473ffffffffffffffffffffffffffffffffffffffff16908060060154905087565b6000600480549050905090565b82805461144790611dad565b90600052602060002090601f01602090048101928261146957600085556114b0565b82601f1061148257805160ff19168380011785556114b0565b828001600101855582156114b0579182015b828111156114af578251825591602001919060010190611494565b5b5090506114bd919061154e565b5090565b8280546114cd90611dad565b90600052602060002090601f0160209004810192826114ef576000855561153d565b82601f10611500578054855561153d565b8280016001018555821561153d57600052602060002091601f016020900482015b8281111561153c578254825591600101919060010190611521565b5b50905061154a919061154e565b5090565b5b8082111561156757600081600090555060010161154f565b5090565b6000604051905090565b600080fd5b600080fd5b600073ffffffffffffffffffffffffffffffffffffffff82169050919050565b60006115aa8261157f565b9050919050565b6115ba8161159f565b81146115c557600080fd5b50565b6000813590506115d7816115b1565b92915050565b6000602082840312156115f3576115f2611575565b5b6000611601848285016115c8565b91505092915050565b60008115159050919050565b61161f8161160a565b82525050565b600060208201905061163a6000830184611616565b92915050565b600081519050919050565b600082825260208201905092915050565b6000819050602082019050919050565b600081519050919050565b600082825260208201905092915050565b60005b838110156116a657808201518184015260208101905061168b565b838111156116b5576000848401525b50505050565b6000601f19601f8301169050919050565b60006116d78261166c565b6116e18185611677565b93506116f1818560208601611688565b6116fa816116bb565b840191505092915050565b61170e8161159f565b82525050565b6000606083016000830151848203600086015261173182826116cc565b9150506020830151848203602086015261174b82826116cc565b91505060408301516117606040860182611705565b508091505092915050565b60006117778383611714565b905092915050565b6000602082019050919050565b600061179782611640565b6117a1818561164b565b9350836020820285016117b38561165c565b8060005b858110156117ef57848403895281516117d0858261176b565b94506117db8361177f565b925060208a019950506001810190506117b7565b50829750879550505050505092915050565b6000602082019050818103600083015261181b818461178c565b905092915050565b6000819050919050565b61183681611823565b811461184157600080fd5b50565b6000813590506118538161182d565b92915050565b60006020828403121561186f5761186e611575565b5b600061187d84828501611844565b91505092915050565b600082825260208201905092915050565b60006118a28261166c565b6118ac8185611886565b93506118bc818560208601611688565b6118c5816116bb565b840191505092915050565b6118d98161159f565b82525050565b600060608201905081810360008301526118f98186611897565b9050818103602083015261190d8185611897565b905061191c60408301846118d0565b949350505050565b61192d81611823565b82525050565b60006020820190506119486000830184611924565b92915050565b600080fd5b600080fd5b7f4e487b7100000000000000000000000000000000000000000000000000000000600052604160045260246000fd5b611990826116bb565b810181811067ffffffffffffffff821117156119af576119ae611958565b5b80604052505050565b60006119c261156b565b90506119ce8282611987565b919050565b600067ffffffffffffffff8211156119ee576119ed611958565b5b6119f7826116bb565b9050602081019050919050565b82818337600083830152505050565b6000611a26611a21846119d3565b6119b8565b905082815260208101848484011115611a4257611a41611953565b5b611a4d848285611a04565b509392505050565b600082601f830112611a6a57611a6961194e565b5b8135611a7a848260208601611a13565b91505092915050565b600080600080600060a08688031215611a9f57611a9e611575565b5b600086013567ffffffffffffffff811115611abd57611abc61157a565b5b611ac988828901611a55565b955050602086013567ffffffffffffffff811115611aea57611ae961157a565b5b611af688828901611a55565b945050604086013567ffffffffffffffff811115611b1757611b1661157a565b5b611b2388828901611a55565b935050606086013567ffffffffffffffff811115611b4457611b4361157a565b5b611b5088828901611a55565b925050608086013567ffffffffffffffff811115611b7157611b7061157a565b5b611b7d88828901611a55565b9150509295509295909350565b6000602082019050611b9f60008301846118d0565b92915050565b600080600060608486031215611bbe57611bbd611575565b5b6000611bcc868287016115c8565b935050602084013567ffffffffffffffff811115611bed57611bec61157a565b5b611bf986828701611a55565b925050604084013567ffffffffffffffff811115611c1a57611c1961157a565b5b611c2686828701611a55565b9150509250925092565b600060e0820190508181036000830152611c4a818a611897565b90508181036020830152611c5e8189611897565b90508181036040830152611c728188611897565b90508181036060830152611c868187611897565b90508181036080830152611c9a8186611897565b9050611ca960a08301856118d0565b611cb660c0830184611924565b98975050505050505050565b7f4e487b7100000000000000000000000000000000000000000000000000000000600052601160045260246000fd5b6000611cfc82611823565b9150611d0783611823565b9250827fffffffffffffffffffffffffffffffffffffffffffffffffffffffffffffffff03821115611d3c57611d3b611cc2565b5b828201905092915050565b6000606082019050611d5c60008301866118d0565b611d6960208301856118d0565b611d766040830184611924565b949350505050565b7f4e487b7100000000000000000000000000000000000000000000000000000000600052602260045260246000fd5b60006002820490506001821680611dc557607f821691505b60208210811415611dd957611dd8611d7e565b5b50919050565b60006080820190508181036000830152611df98187611897565b90508181036020830152611e0d8186611897565b9050611e1c60408301856118d0565b611e296060830184611924565b95945050505050565b6000606082019050611e4760008301866118d0565b8181036020830152611e598185611897565b90508181036040830152611e6d8184611897565b905094935050505056fea2646970667358221220ec2dd7e8e415a25b51870a425a8d954f6ef5e8058646abb7bc63e41b9b0f082564736f6c634300080a0033",
  "immutableReferences": {},
  "source": "pragma solidity 0.8.10;\r\n\r\n//  [x]  register voters\r\n//  [x]  get their votes\r\n//  [x]  ensure that they can't vote more than once\r\n//  [x]  ensure that the votes of the apirants are well appended\r\n\r\n\r\ncontract Vote {\r\n\r\n    //  address of the owner / admin/ deployer\r\n\r\n    address public owner;\r\n    \r\n    //  a map to store the number of votes submitted to each candidates\r\n    mapping(address => uint256) public voteCount;\r\n\r\n\r\n    //  map to store candidates' registration state as true or false\r\n    mapping(address => bool)  registeredCandidates;\r\n\r\n    //   a struct to save the candidates registration data\r\n    struct CandidateRegistration {\r\n        string name;\r\n        string ipfsHash;\r\n        address candidateAddress;\r\n    }\r\n\r\n    //  that saves the candidate data to their address\r\n    mapping(address => CandidateRegistration) public registeredCandidatesData;\r\n\r\n\r\n\r\n\r\n\r\n    //  a struct to save the voter's details on registration\r\n    struct ElectorateRegistration {\r\n\r\n        string FirstName;\r\n        string LastName;\r\n        string MiddleName;\r\n        string stateOfOrigin;\r\n        string NIN;\r\n        address registrantAddress;\r\n        uint256 timestamp;\r\n\r\n    }\r\n\r\n    //  an array of registered electorates addresses\r\n    address[] public registeredElectoratesAddresses; \r\n\r\n\r\n    //  an array of registered candidates data\r\n    CandidateRegistration[] public registeredCandidatesArray;\r\n\r\n    //  mapping the registered user's details to their address\r\n    mapping(address => ElectorateRegistration) public electorates;\r\n\r\n\r\n    //  mapping marks addresses as registered\r\n    mapping(address => bool) public registered;\r\n\r\n    //  mapping that validates an electorates' vote \r\n    mapping(address => bool) public validateVote;\r\n\r\n\r\n     /////   Events\r\n    //  1. Registered event\r\n    //  2. Vote event\r\n\r\n    event ElectorateRegistered(string _firstname, string _lastName, address _address, uint256 _timestamp);\r\n    event VoteCandidate(address _candidate, address _electorate, uint256 _timestamp);\r\n    event CandidateRegistered(address _candidate, string _name, string _ipfsHash);\r\n\r\n\r\n     constructor () {\r\n\r\n        owner = msg.sender;\r\n    }\r\n\r\n    // declare a modifier that makes some functions to be exclusive to just the owner of the contract\r\n\r\n    modifier onlyOwner {\r\n        require(owner == msg.sender);\r\n        _;\r\n    }\r\n\r\n\r\n\r\n\r\n    function registerVoter(string memory _firstname, string memory _lastname, string memory _middlename, string memory _stateOfOrigin, string memory _nin) public returns(bool success) {\r\n\r\n        //  check if the address has been registered\r\n        require(!registered[msg.sender]);\r\n\r\n        //  if not registered, append the address to the array of registered users\r\n        registered[msg.sender] = true;\r\n        registeredElectoratesAddresses.push(msg.sender);  \r\n\r\n        //  saving their registration details\r\n        electorates[msg.sender] = ElectorateRegistration(_firstname, _lastname, _middlename, _stateOfOrigin, _nin, msg.sender, block.timestamp);\r\n\r\n        //  emit registration event\r\n        emit ElectorateRegistered( _firstname, _lastname , msg.sender, block.timestamp);\r\n\r\n        return true;\r\n  \r\n    }\r\n\r\n    function voteCandidate(address _candidate) public returns(bool success) {\r\n\r\n        //  validate that this address is eligible for voting through registration\r\n        require(electorates[msg.sender].registrantAddress == msg.sender);\r\n\r\n        //  validate that this address hasn't voted\r\n        require(!validateVote[msg.sender]);\r\n\r\n\r\n        // validate that this candidate's address is not invalid and it is registered\r\n        require(_candidate != address(0));\r\n        require(registeredCandidates[_candidate]);\r\n        voteCount[_candidate] += 1;\r\n\r\n        //  ensures that this address can't vote again\r\n        validateVote[msg.sender] = true;\r\n\r\n        //  emit event\r\n        emit VoteCandidate(_candidate, msg.sender, block.timestamp);\r\n\r\n        return true;\r\n    }\r\n\r\n    function noOfRegisteredVoters() public view returns (uint256) {\r\n        return registeredElectoratesAddresses.length;\r\n    }\r\n\r\n\r\n    function registerCandidates(address _candidate, string memory _name , string memory _ipfsHash ) public onlyOwner {\r\n\r\n        // candidates can only be registered via the contract owner\r\n\r\n        require(_candidate != address(0));\r\n        require(!registeredCandidates[_candidate]);\r\n\r\n        registeredCandidatesData[_candidate] = CandidateRegistration(_name, _ipfsHash, _candidate);\r\n\r\n        registeredCandidatesArray.push(registeredCandidatesData[_candidate]);\r\n\r\n        registeredCandidates[_candidate] = true;\r\n\r\n        emit CandidateRegistered(_candidate, _name, _ipfsHash);\r\n        \r\n    }\r\n\r\n    function getAllCandidates() public view returns (CandidateRegistration[] memory) {\r\n        return registeredCandidatesArray;\r\n    }\r\n\r\n   \r\n\r\n \r\n    \r\n}",
  "sourcePath": "C:\\Users\\Uju Nobei\\Documents\\Israel Linux\\blockchain\\DEVO smart contract\\contracts\\Vote.sol",
  "compiler": {
    "name": "solc",
    "version": "0.8.10+commit.fc410830.Emscripten.clang"
  },
  "schemaVersion": "3.4.3",
  "updatedAt": "2021-12-20T20:48:32.930Z",
  "networkType": "ethereum",
  "devdoc": {
    "kind": "dev",
    "methods": {},
    "version": 1
  },
  "userdoc": {
    "kind": "user",
    "methods": {},
    "version": 1
  }
}