{
  "contractName": "Vote",
  "abi": [
    {
      "inputs": [],
      "stateMutability": "nonpayable",
      "type": "constructor"
    },
    {
      "anonymous": false,
      "inputs": [
        {
          "indexed": false,
          "internalType": "string",
          "name": "_firstname",
          "type": "string"
        },
        {
          "indexed": false,
          "internalType": "string",
          "name": "_lastName",
          "type": "string"
        },
        {
          "indexed": false,
          "internalType": "address",
          "name": "_address",
          "type": "address"
        },
        {
          "indexed": false,
          "internalType": "uint256",
          "name": "_timestamp",
          "type": "uint256"
        }
      ],
      "name": "Registered",
      "type": "event"
    },
    {
      "anonymous": false,
      "inputs": [
        {
          "indexed": false,
          "internalType": "address",
          "name": "_candidate",
          "type": "address"
        },
        {
          "indexed": false,
          "internalType": "uint256",
          "name": "_timestamp",
          "type": "uint256"
        }
      ],
      "name": "VoteCandidate",
      "type": "event"
    },
    {
      "inputs": [
        {
          "internalType": "address",
          "name": "",
          "type": "address"
        }
      ],
      "name": "candidates",
      "outputs": [
        {
          "internalType": "uint256",
          "name": "",
          "type": "uint256"
        }
      ],
      "stateMutability": "view",
      "type": "function",
      "constant": true
    },
    {
      "inputs": [
        {
          "internalType": "address",
          "name": "",
          "type": "address"
        }
      ],
      "name": "electorates",
      "outputs": [
        {
          "internalType": "string",
          "name": "FirstName",
          "type": "string"
        },
        {
          "internalType": "string",
          "name": "LastName",
          "type": "string"
        },
        {
          "internalType": "string",
          "name": "MiddleName",
          "type": "string"
        },
        {
          "internalType": "string",
          "name": "stateOfOrigin",
          "type": "string"
        },
        {
          "internalType": "string",
          "name": "NIN",
          "type": "string"
        },
        {
          "internalType": "address",
          "name": "registrantAddress",
          "type": "address"
        },
        {
          "internalType": "uint256",
          "name": "timestamp",
          "type": "uint256"
        }
      ],
      "stateMutability": "view",
      "type": "function",
      "constant": true
    },
    {
      "inputs": [],
      "name": "owner",
      "outputs": [
        {
          "internalType": "address",
          "name": "",
          "type": "address"
        }
      ],
      "stateMutability": "view",
      "type": "function",
      "constant": true
    },
    {
      "inputs": [
        {
          "internalType": "address",
          "name": "",
          "type": "address"
        }
      ],
      "name": "registered",
      "outputs": [
        {
          "internalType": "bool",
          "name": "",
          "type": "bool"
        }
      ],
      "stateMutability": "view",
      "type": "function",
      "constant": true
    },
    {
      "inputs": [
        {
          "internalType": "uint256",
          "name": "",
          "type": "uint256"
        }
      ],
      "name": "registeredAddresses",
      "outputs": [
        {
          "internalType": "address",
          "name": "",
          "type": "address"
        }
      ],
      "stateMutability": "view",
      "type": "function",
      "constant": true
    },
    {
      "inputs": [
        {
          "internalType": "address",
          "name": "",
          "type": "address"
        }
      ],
      "name": "validateVote",
      "outputs": [
        {
          "internalType": "bool",
          "name": "",
          "type": "bool"
        }
      ],
      "stateMutability": "view",
      "type": "function",
      "constant": true
    },
    {
      "inputs": [
        {
          "internalType": "string",
          "name": "_firstname",
          "type": "string"
        },
        {
          "internalType": "string",
          "name": "_lastname",
          "type": "string"
        },
        {
          "internalType": "string",
          "name": "_middlename",
          "type": "string"
        },
        {
          "internalType": "string",
          "name": "_stateOfOrigin",
          "type": "string"
        },
        {
          "internalType": "string",
          "name": "_nin",
          "type": "string"
        }
      ],
      "name": "registerVoter",
      "outputs": [
        {
          "internalType": "bool",
          "name": "success",
          "type": "bool"
        }
      ],
      "stateMutability": "nonpayable",
      "type": "function"
    },
    {
      "inputs": [
        {
          "internalType": "address",
          "name": "_candidate",
          "type": "address"
        }
      ],
      "name": "voteCandidate",
      "outputs": [
        {
          "internalType": "bool",
          "name": "success",
          "type": "bool"
        }
      ],
      "stateMutability": "nonpayable",
      "type": "function"
    },
    {
      "inputs": [],
      "name": "noOfRegisteredVoters",
      "outputs": [
        {
          "internalType": "uint256",
          "name": "",
          "type": "uint256"
        }
      ],
      "stateMutability": "view",
      "type": "function",
      "constant": true
    },
    {
      "inputs": [
        {
          "internalType": "address",
          "name": "_candidate",
          "type": "address"
        }
      ],
      "name": "registerCandidates",
      "outputs": [],
      "stateMutability": "nonpayable",
      "type": "function"
    }
  ],
  "bytecode": "0x608060405234801561001057600080fd5b50336000806101000a81548173ffffffffffffffffffffffffffffffffffffffff021916908373ffffffffffffffffffffffffffffffffffffffff1602179055506113d3806100606000396000f3fe608060405234801561001057600080fd5b506004361061009e5760003560e01c80638da5cb5b116100665780638da5cb5b14610193578063b2dd5c07146101b1578063c0c45a81146101e1578063e97a59d7146101fd578063f5061410146102335761009e565b806326bb886d146100a35780635a6ea770146100d35780635ed5d2c3146101035780636e9b8555146101335780638ab66a9014610163575b600080fd5b6100bd60048036038101906100b89190610dba565b610251565b6040516100ca9190610e02565b60405180910390f35b6100ed60048036038101906100e89190610dba565b6104c4565b6040516100fa9190610e02565b60405180910390f35b61011d60048036038101906101189190610f63565b6104e4565b60405161012a9190610e02565b60405180910390f35b61014d600480360381019061014891906110a0565b6107af565b60405161015a91906110dc565b60405180910390f35b61017d60048036038101906101789190610dba565b6107ee565b60405161018a9190611106565b60405180910390f35b61019b610806565b6040516101a891906110dc565b60405180910390f35b6101cb60048036038101906101c69190610dba565b61082a565b6040516101d89190610e02565b60405180910390f35b6101fb60048036038101906101f69190610dba565b61084a565b005b61021760048036038101906102129190610dba565b61098e565b60405161022a97969594939291906111a9565b60405180910390f35b61023b610c98565b6040516102489190611106565b60405180910390f35b60003373ffffffffffffffffffffffffffffffffffffffff16600460003373ffffffffffffffffffffffffffffffffffffffff1673ffffffffffffffffffffffffffffffffffffffff16815260200190815260200160002060050160009054906101000a900473ffffffffffffffffffffffffffffffffffffffff1673ffffffffffffffffffffffffffffffffffffffff16146102ed57600080fd5b600660003373ffffffffffffffffffffffffffffffffffffffff1673ffffffffffffffffffffffffffffffffffffffff16815260200190815260200160002060009054906101000a900460ff161561034457600080fd5b600073ffffffffffffffffffffffffffffffffffffffff168273ffffffffffffffffffffffffffffffffffffffff16141561037e57600080fd5b600260008373ffffffffffffffffffffffffffffffffffffffff1673ffffffffffffffffffffffffffffffffffffffff16815260200190815260200160002060009054906101000a900460ff166103d457600080fd5b60018060008473ffffffffffffffffffffffffffffffffffffffff1673ffffffffffffffffffffffffffffffffffffffff1681526020019081526020016000206000828254610423919061126a565b925050819055506001600660003373ffffffffffffffffffffffffffffffffffffffff1673ffffffffffffffffffffffffffffffffffffffff16815260200190815260200160002060006101000a81548160ff0219169083151502179055507f3d4de14279f53a8c97ecb705e66b3019b167ad731d58adb4cac1b90e51f31b5c82426040516104b39291906112c0565b60405180910390a160019050919050565b60066020528060005260406000206000915054906101000a900460ff1681565b6000600560003373ffffffffffffffffffffffffffffffffffffffff1673ffffffffffffffffffffffffffffffffffffffff16815260200190815260200160002060009054906101000a900460ff161561053d57600080fd5b6001600560003373ffffffffffffffffffffffffffffffffffffffff1673ffffffffffffffffffffffffffffffffffffffff16815260200190815260200160002060006101000a81548160ff0219169083151502179055506003339080600181540180825580915050600190039060005260206000200160009091909190916101000a81548173ffffffffffffffffffffffffffffffffffffffff021916908373ffffffffffffffffffffffffffffffffffffffff1602179055506040518060e001604052808781526020018681526020018581526020018481526020018381526020013373ffffffffffffffffffffffffffffffffffffffff16815260200142815250600460003373ffffffffffffffffffffffffffffffffffffffff1673ffffffffffffffffffffffffffffffffffffffff168152602001908152602001600020600082015181600001908051906020019061069c929190610ca5565b5060208201518160010190805190602001906106b9929190610ca5565b5060408201518160020190805190602001906106d6929190610ca5565b5060608201518160030190805190602001906106f3929190610ca5565b506080820151816004019080519060200190610710929190610ca5565b5060a08201518160050160006101000a81548173ffffffffffffffffffffffffffffffffffffffff021916908373ffffffffffffffffffffffffffffffffffffffff16021790555060c082015181600601559050507f297837a82e737cd59e693ad953ccebf7d91c4d61ffb3b34300853f0aeda66fe98686334260405161079a94939291906112e9565b60405180910390a16001905095945050505050565b600381815481106107bf57600080fd5b906000526020600020016000915054906101000a900473ffffffffffffffffffffffffffffffffffffffff1681565b60016020528060005260406000206000915090505481565b60008054906101000a900473ffffffffffffffffffffffffffffffffffffffff1681565b60056020528060005260406000206000915054906101000a900460ff1681565b3373ffffffffffffffffffffffffffffffffffffffff1660008054906101000a900473ffffffffffffffffffffffffffffffffffffffff1673ffffffffffffffffffffffffffffffffffffffff16146108a257600080fd5b600073ffffffffffffffffffffffffffffffffffffffff168173ffffffffffffffffffffffffffffffffffffffff1614156108dc57600080fd5b600260008273ffffffffffffffffffffffffffffffffffffffff1673ffffffffffffffffffffffffffffffffffffffff16815260200190815260200160002060009054906101000a900460ff161561093357600080fd5b6001600260008373ffffffffffffffffffffffffffffffffffffffff1673ffffffffffffffffffffffffffffffffffffffff16815260200190815260200160002060006101000a81548160ff02191690831515021790555050565b60046020528060005260406000206000915090508060000180546109b19061136b565b80601f01602080910402602001604051908101604052809291908181526020018280546109dd9061136b565b8015610a2a5780601f106109ff57610100808354040283529160200191610a2a565b820191906000526020600020905b815481529060010190602001808311610a0d57829003601f168201915b505050505090806001018054610a3f9061136b565b80601f0160208091040260200160405190810160405280929190818152602001828054610a6b9061136b565b8015610ab85780601f10610a8d57610100808354040283529160200191610ab8565b820191906000526020600020905b815481529060010190602001808311610a9b57829003601f168201915b505050505090806002018054610acd9061136b565b80601f0160208091040260200160405190810160405280929190818152602001828054610af99061136b565b8015610b465780601f10610b1b57610100808354040283529160200191610b46565b820191906000526020600020905b815481529060010190602001808311610b2957829003601f168201915b505050505090806003018054610b5b9061136b565b80601f0160208091040260200160405190810160405280929190818152602001828054610b879061136b565b8015610bd45780601f10610ba957610100808354040283529160200191610bd4565b820191906000526020600020905b815481529060010190602001808311610bb757829003601f168201915b505050505090806004018054610be99061136b565b80601f0160208091040260200160405190810160405280929190818152602001828054610c159061136b565b8015610c625780601f10610c3757610100808354040283529160200191610c62565b820191906000526020600020905b815481529060010190602001808311610c4557829003601f168201915b5050505050908060050160009054906101000a900473ffffffffffffffffffffffffffffffffffffffff16908060060154905087565b6000600380549050905090565b828054610cb19061136b565b90600052602060002090601f016020900481019282610cd35760008555610d1a565b82601f10610cec57805160ff1916838001178555610d1a565b82800160010185558215610d1a579182015b82811115610d19578251825591602001919060010190610cfe565b5b509050610d279190610d2b565b5090565b5b80821115610d44576000816000905550600101610d2c565b5090565b6000604051905090565b600080fd5b600080fd5b600073ffffffffffffffffffffffffffffffffffffffff82169050919050565b6000610d8782610d5c565b9050919050565b610d9781610d7c565b8114610da257600080fd5b50565b600081359050610db481610d8e565b92915050565b600060208284031215610dd057610dcf610d52565b5b6000610dde84828501610da5565b91505092915050565b60008115159050919050565b610dfc81610de7565b82525050565b6000602082019050610e176000830184610df3565b92915050565b600080fd5b600080fd5b6000601f19601f8301169050919050565b7f4e487b7100000000000000000000000000000000000000000000000000000000600052604160045260246000fd5b610e7082610e27565b810181811067ffffffffffffffff82111715610e8f57610e8e610e38565b5b80604052505050565b6000610ea2610d48565b9050610eae8282610e67565b919050565b600067ffffffffffffffff821115610ece57610ecd610e38565b5b610ed782610e27565b9050602081019050919050565b82818337600083830152505050565b6000610f06610f0184610eb3565b610e98565b905082815260208101848484011115610f2257610f21610e22565b5b610f2d848285610ee4565b509392505050565b600082601f830112610f4a57610f49610e1d565b5b8135610f5a848260208601610ef3565b91505092915050565b600080600080600060a08688031215610f7f57610f7e610d52565b5b600086013567ffffffffffffffff811115610f9d57610f9c610d57565b5b610fa988828901610f35565b955050602086013567ffffffffffffffff811115610fca57610fc9610d57565b5b610fd688828901610f35565b945050604086013567ffffffffffffffff811115610ff757610ff6610d57565b5b61100388828901610f35565b935050606086013567ffffffffffffffff81111561102457611023610d57565b5b61103088828901610f35565b925050608086013567ffffffffffffffff81111561105157611050610d57565b5b61105d88828901610f35565b9150509295509295909350565b6000819050919050565b61107d8161106a565b811461108857600080fd5b50565b60008135905061109a81611074565b92915050565b6000602082840312156110b6576110b5610d52565b5b60006110c48482850161108b565b91505092915050565b6110d681610d7c565b82525050565b60006020820190506110f160008301846110cd565b92915050565b6111008161106a565b82525050565b600060208201905061111b60008301846110f7565b92915050565b600081519050919050565b600082825260208201905092915050565b60005b8381101561115b578082015181840152602081019050611140565b8381111561116a576000848401525b50505050565b600061117b82611121565b611185818561112c565b935061119581856020860161113d565b61119e81610e27565b840191505092915050565b600060e08201905081810360008301526111c3818a611170565b905081810360208301526111d78189611170565b905081810360408301526111eb8188611170565b905081810360608301526111ff8187611170565b905081810360808301526112138186611170565b905061122260a08301856110cd565b61122f60c08301846110f7565b98975050505050505050565b7f4e487b7100000000000000000000000000000000000000000000000000000000600052601160045260246000fd5b60006112758261106a565b91506112808361106a565b9250827fffffffffffffffffffffffffffffffffffffffffffffffffffffffffffffffff038211156112b5576112b461123b565b5b828201905092915050565b60006040820190506112d560008301856110cd565b6112e260208301846110f7565b9392505050565b600060808201905081810360008301526113038187611170565b905081810360208301526113178186611170565b905061132660408301856110cd565b61133360608301846110f7565b95945050505050565b7f4e487b7100000000000000000000000000000000000000000000000000000000600052602260045260246000fd5b6000600282049050600182168061138357607f821691505b602082108114156113975761139661133c565b5b5091905056fea264697066735822122053d095b88fc18c604509d8aaf118a330fc178528095b83bdbf54552e9e1b2d3064736f6c634300080a0033",
  "immutableReferences": {},
  "source": "pragma solidity 0.8.10;\r\n\r\n//  [x]  register voters\r\n//  [x]  get their votes\r\n//  [x]  ensure that they can't vote more than once\r\n//  [x]  ensure that the votes of the apirants are well appended\r\n\r\n\r\ncontract Vote {\r\n\r\n    //  address of the owner / admin/ deployer\r\n\r\n    address public owner;\r\n    \r\n    //  a map to store the number of votes submitted to each candidates\r\n    mapping(address => uint256) public candidates;\r\n\r\n\r\n    //  map to register candidates\r\n    mapping(address => bool) registeredCandidates;\r\n\r\n    //  a struct to save the voter's details on registration\r\n    struct Registration {\r\n\r\n        string FirstName;\r\n        string LastName;\r\n        string MiddleName;\r\n        string stateOfOrigin;\r\n        string NIN;\r\n        address registrantAddress;\r\n        uint256 timestamp;\r\n\r\n    }\r\n\r\n    //  an array of registered addresses\r\n    address[] public registeredAddresses; \r\n\r\n    //  mapping the registered user's details to their address\r\n    mapping(address => Registration) public electorates;\r\n\r\n\r\n    //  mapping marks addresses as registered\r\n    mapping(address => bool) public registered;\r\n\r\n    //  mapping that validates an electorates' vote \r\n    mapping(address => bool) public validateVote;\r\n\r\n\r\n     /////   Events\r\n    //  1. Registered event\r\n    //  2. Vote event\r\n\r\n    event Registered(string _firstname, string _lastName, address _address, uint256 _timestamp);\r\n    event VoteCandidate(address _candidate, uint256 _timestamp);\r\n\r\n\r\n     constructor () {\r\n\r\n        owner = msg.sender;\r\n    }\r\n\r\n    // declare a modifier that makes some functions to be exclusive to just the owner of the contract\r\n\r\n    modifier onlyOwner {\r\n        require(owner == msg.sender);\r\n        _;\r\n    }\r\n\r\n\r\n\r\n\r\n    function registerVoter(string memory _firstname, string memory _lastname, string memory _middlename, string memory _stateOfOrigin, string memory _nin) public returns(bool success) {\r\n\r\n        //  check if the address has been registered\r\n        require(!registered[msg.sender]);\r\n\r\n        //  if not registered, append the address to the array of registered users\r\n        registered[msg.sender] = true;\r\n        registeredAddresses.push(msg.sender);  \r\n\r\n        //  saving their registration details\r\n        electorates[msg.sender] = Registration(_firstname, _lastname, _middlename, _stateOfOrigin, _nin, msg.sender, block.timestamp);\r\n\r\n        //  emit registration event\r\n        emit Registered( _firstname, _lastname , msg.sender, block.timestamp);\r\n\r\n        return true;\r\n  \r\n    }\r\n\r\n    function voteCandidate(address _candidate) public returns(bool success) {\r\n\r\n        //  validate that this address is eligible for voting through registration\r\n        require(electorates[msg.sender].registrantAddress == msg.sender);\r\n\r\n        //  validate that this address hasn't voted\r\n        require(!validateVote[msg.sender]);\r\n\r\n\r\n        // validate that this candidate's address is not invalid and it is registered\r\n        require(_candidate != address(0));\r\n        require(registeredCandidates[_candidate]);\r\n        candidates[_candidate] += 1;\r\n\r\n        //  ensures that this address can't vote again\r\n        validateVote[msg.sender] = true;\r\n\r\n        //  emit event\r\n        emit VoteCandidate(_candidate, block.timestamp);\r\n\r\n        return true;\r\n    }\r\n\r\n    function noOfRegisteredVoters() public view returns (uint256) {\r\n        return registeredAddresses.length;\r\n    }\r\n\r\n\r\n    function registerCandidates(address _candidate) public onlyOwner {\r\n\r\n        // candidates can only be registered via the contract owner\r\n\r\n        require(_candidate != address(0));\r\n        require(!registeredCandidates[_candidate]);\r\n        registeredCandidates[_candidate] = true;\r\n        \r\n    }\r\n\r\n \r\n    \r\n}",
  "sourcePath": "C:\\Users\\Uju Nobei\\Documents\\Israel Linux\\blockchain\\DEVO smart contract\\contracts\\Vote.sol",
  "compiler": {
    "name": "solc",
    "version": "0.8.10+commit.fc410830.Emscripten.clang"
  },
  "schemaVersion": "3.4.3",
  "updatedAt": "2021-12-15T12:37:48.740Z",
  "networkType": "ethereum",
  "devdoc": {
    "kind": "dev",
    "methods": {},
    "version": 1
  },
  "userdoc": {
    "kind": "user",
    "methods": {},
    "version": 1
  }
}