{
  "contractName": "Vote",
  "abi": [
    {
      "inputs": [],
      "stateMutability": "nonpayable",
      "type": "constructor"
    },
    {
      "anonymous": false,
      "inputs": [
        {
          "indexed": false,
          "internalType": "string",
          "name": "_firstname",
          "type": "string"
        },
        {
          "indexed": false,
          "internalType": "string",
          "name": "_lastName",
          "type": "string"
        },
        {
          "indexed": false,
          "internalType": "address",
          "name": "_address",
          "type": "address"
        },
        {
          "indexed": false,
          "internalType": "uint256",
          "name": "_timestamp",
          "type": "uint256"
        }
      ],
      "name": "Registered",
      "type": "event"
    },
    {
      "anonymous": false,
      "inputs": [
        {
          "indexed": false,
          "internalType": "address",
          "name": "_candidate",
          "type": "address"
        },
        {
          "indexed": false,
          "internalType": "uint256",
          "name": "_timestamp",
          "type": "uint256"
        }
      ],
      "name": "VoteCandidate",
      "type": "event"
    },
    {
      "inputs": [
        {
          "internalType": "address",
          "name": "",
          "type": "address"
        }
      ],
      "name": "candidates",
      "outputs": [
        {
          "internalType": "uint256",
          "name": "",
          "type": "uint256"
        }
      ],
      "stateMutability": "view",
      "type": "function",
      "constant": true
    },
    {
      "inputs": [
        {
          "internalType": "address",
          "name": "",
          "type": "address"
        }
      ],
      "name": "electorates",
      "outputs": [
        {
          "internalType": "string",
          "name": "FirstName",
          "type": "string"
        },
        {
          "internalType": "string",
          "name": "LastName",
          "type": "string"
        },
        {
          "internalType": "string",
          "name": "MiddleName",
          "type": "string"
        },
        {
          "internalType": "string",
          "name": "stateOfOrigin",
          "type": "string"
        },
        {
          "internalType": "string",
          "name": "NIN",
          "type": "string"
        },
        {
          "internalType": "address",
          "name": "registrantAddress",
          "type": "address"
        },
        {
          "internalType": "uint256",
          "name": "timestamp",
          "type": "uint256"
        }
      ],
      "stateMutability": "view",
      "type": "function",
      "constant": true
    },
    {
      "inputs": [],
      "name": "owner",
      "outputs": [
        {
          "internalType": "address",
          "name": "",
          "type": "address"
        }
      ],
      "stateMutability": "view",
      "type": "function",
      "constant": true
    },
    {
      "inputs": [
        {
          "internalType": "address",
          "name": "",
          "type": "address"
        }
      ],
      "name": "registered",
      "outputs": [
        {
          "internalType": "bool",
          "name": "",
          "type": "bool"
        }
      ],
      "stateMutability": "view",
      "type": "function",
      "constant": true
    },
    {
      "inputs": [
        {
          "internalType": "uint256",
          "name": "",
          "type": "uint256"
        }
      ],
      "name": "registeredAddresses",
      "outputs": [
        {
          "internalType": "address",
          "name": "",
          "type": "address"
        }
      ],
      "stateMutability": "view",
      "type": "function",
      "constant": true
    },
    {
      "inputs": [
        {
          "internalType": "address",
          "name": "",
          "type": "address"
        }
      ],
      "name": "registeredCandidatesData",
      "outputs": [
        {
          "internalType": "string",
          "name": "name",
          "type": "string"
        },
        {
          "internalType": "string",
          "name": "ipfsHash",
          "type": "string"
        }
      ],
      "stateMutability": "view",
      "type": "function",
      "constant": true
    },
    {
      "inputs": [
        {
          "internalType": "address",
          "name": "",
          "type": "address"
        }
      ],
      "name": "validateVote",
      "outputs": [
        {
          "internalType": "bool",
          "name": "",
          "type": "bool"
        }
      ],
      "stateMutability": "view",
      "type": "function",
      "constant": true
    },
    {
      "inputs": [
        {
          "internalType": "string",
          "name": "_firstname",
          "type": "string"
        },
        {
          "internalType": "string",
          "name": "_lastname",
          "type": "string"
        },
        {
          "internalType": "string",
          "name": "_middlename",
          "type": "string"
        },
        {
          "internalType": "string",
          "name": "_stateOfOrigin",
          "type": "string"
        },
        {
          "internalType": "string",
          "name": "_nin",
          "type": "string"
        }
      ],
      "name": "registerVoter",
      "outputs": [
        {
          "internalType": "bool",
          "name": "success",
          "type": "bool"
        }
      ],
      "stateMutability": "nonpayable",
      "type": "function"
    },
    {
      "inputs": [
        {
          "internalType": "address",
          "name": "_candidate",
          "type": "address"
        }
      ],
      "name": "voteCandidate",
      "outputs": [
        {
          "internalType": "bool",
          "name": "success",
          "type": "bool"
        }
      ],
      "stateMutability": "nonpayable",
      "type": "function"
    },
    {
      "inputs": [],
      "name": "noOfRegisteredVoters",
      "outputs": [
        {
          "internalType": "uint256",
          "name": "",
          "type": "uint256"
        }
      ],
      "stateMutability": "view",
      "type": "function",
      "constant": true
    },
    {
      "inputs": [
        {
          "internalType": "address",
          "name": "_candidate",
          "type": "address"
        },
        {
          "internalType": "string",
          "name": "_name",
          "type": "string"
        },
        {
          "internalType": "string",
          "name": "_ipfsHash",
          "type": "string"
        }
      ],
      "name": "registerCandidates",
      "outputs": [],
      "stateMutability": "nonpayable",
      "type": "function"
    }
  ],
  "bytecode": "0x608060405234801561001057600080fd5b50336000806101000a81548173ffffffffffffffffffffffffffffffffffffffff021916908373ffffffffffffffffffffffffffffffffffffffff160217905550611698806100606000396000f3fe608060405234801561001057600080fd5b50600436106100a95760003560e01c80638da5cb5b116100715780638da5cb5b1461019e57806391d3d544146101bc578063b2dd5c07146101d8578063e6896b0f14610208578063e97a59d714610239578063f50614101461026f576100a9565b806326bb886d146100ae5780635a6ea770146100de5780635ed5d2c31461010e5780636e9b85551461013e5780638ab66a901461016e575b600080fd5b6100c860048036038101906100c39190610fbd565b61028d565b6040516100d59190611005565b60405180910390f35b6100f860048036038101906100f39190610fbd565b610500565b6040516101059190611005565b60405180910390f35b61012860048036038101906101239190611166565b610520565b6040516101359190611005565b60405180910390f35b610158600480360381019061015391906112a3565b6107eb565b60405161016591906112df565b60405180910390f35b61018860048036038101906101839190610fbd565b61082a565b6040516101959190611309565b60405180910390f35b6101a6610842565b6040516101b391906112df565b60405180910390f35b6101d660048036038101906101d19190611324565b610866565b005b6101f260048036038101906101ed9190610fbd565b610a3d565b6040516101ff9190611005565b60405180910390f35b610222600480360381019061021d9190610fbd565b610a5d565b604051610230929190611437565b60405180910390f35b610253600480360381019061024e9190610fbd565b610b91565b604051610266979695949392919061146e565b60405180910390f35b610277610e9b565b6040516102849190611309565b60405180910390f35b60003373ffffffffffffffffffffffffffffffffffffffff16600560003373ffffffffffffffffffffffffffffffffffffffff1673ffffffffffffffffffffffffffffffffffffffff16815260200190815260200160002060050160009054906101000a900473ffffffffffffffffffffffffffffffffffffffff1673ffffffffffffffffffffffffffffffffffffffff161461032957600080fd5b600760003373ffffffffffffffffffffffffffffffffffffffff1673ffffffffffffffffffffffffffffffffffffffff16815260200190815260200160002060009054906101000a900460ff161561038057600080fd5b600073ffffffffffffffffffffffffffffffffffffffff168273ffffffffffffffffffffffffffffffffffffffff1614156103ba57600080fd5b600260008373ffffffffffffffffffffffffffffffffffffffff1673ffffffffffffffffffffffffffffffffffffffff16815260200190815260200160002060009054906101000a900460ff1661041057600080fd5b60018060008473ffffffffffffffffffffffffffffffffffffffff1673ffffffffffffffffffffffffffffffffffffffff168152602001908152602001600020600082825461045f919061152f565b925050819055506001600760003373ffffffffffffffffffffffffffffffffffffffff1673ffffffffffffffffffffffffffffffffffffffff16815260200190815260200160002060006101000a81548160ff0219169083151502179055507f3d4de14279f53a8c97ecb705e66b3019b167ad731d58adb4cac1b90e51f31b5c82426040516104ef929190611585565b60405180910390a160019050919050565b60076020528060005260406000206000915054906101000a900460ff1681565b6000600660003373ffffffffffffffffffffffffffffffffffffffff1673ffffffffffffffffffffffffffffffffffffffff16815260200190815260200160002060009054906101000a900460ff161561057957600080fd5b6001600660003373ffffffffffffffffffffffffffffffffffffffff1673ffffffffffffffffffffffffffffffffffffffff16815260200190815260200160002060006101000a81548160ff0219169083151502179055506004339080600181540180825580915050600190039060005260206000200160009091909190916101000a81548173ffffffffffffffffffffffffffffffffffffffff021916908373ffffffffffffffffffffffffffffffffffffffff1602179055506040518060e001604052808781526020018681526020018581526020018481526020018381526020013373ffffffffffffffffffffffffffffffffffffffff16815260200142815250600560003373ffffffffffffffffffffffffffffffffffffffff1673ffffffffffffffffffffffffffffffffffffffff16815260200190815260200160002060008201518160000190805190602001906106d8929190610ea8565b5060208201518160010190805190602001906106f5929190610ea8565b506040820151816002019080519060200190610712929190610ea8565b50606082015181600301908051906020019061072f929190610ea8565b50608082015181600401908051906020019061074c929190610ea8565b5060a08201518160050160006101000a81548173ffffffffffffffffffffffffffffffffffffffff021916908373ffffffffffffffffffffffffffffffffffffffff16021790555060c082015181600601559050507f297837a82e737cd59e693ad953ccebf7d91c4d61ffb3b34300853f0aeda66fe9868633426040516107d694939291906115ae565b60405180910390a16001905095945050505050565b600481815481106107fb57600080fd5b906000526020600020016000915054906101000a900473ffffffffffffffffffffffffffffffffffffffff1681565b60016020528060005260406000206000915090505481565b60008054906101000a900473ffffffffffffffffffffffffffffffffffffffff1681565b3373ffffffffffffffffffffffffffffffffffffffff1660008054906101000a900473ffffffffffffffffffffffffffffffffffffffff1673ffffffffffffffffffffffffffffffffffffffff16146108be57600080fd5b600073ffffffffffffffffffffffffffffffffffffffff168373ffffffffffffffffffffffffffffffffffffffff1614156108f857600080fd5b600260008473ffffffffffffffffffffffffffffffffffffffff1673ffffffffffffffffffffffffffffffffffffffff16815260200190815260200160002060009054906101000a900460ff161561094f57600080fd5b604051806040016040528083815260200182815250600360008573ffffffffffffffffffffffffffffffffffffffff1673ffffffffffffffffffffffffffffffffffffffff16815260200190815260200160002060008201518160000190805190602001906109bf929190610ea8565b5060208201518160010190805190602001906109dc929190610ea8565b509050506001600260008573ffffffffffffffffffffffffffffffffffffffff1673ffffffffffffffffffffffffffffffffffffffff16815260200190815260200160002060006101000a81548160ff021916908315150217905550505050565b60066020528060005260406000206000915054906101000a900460ff1681565b6003602052806000526040600020600091509050806000018054610a8090611630565b80601f0160208091040260200160405190810160405280929190818152602001828054610aac90611630565b8015610af95780601f10610ace57610100808354040283529160200191610af9565b820191906000526020600020905b815481529060010190602001808311610adc57829003601f168201915b505050505090806001018054610b0e90611630565b80601f0160208091040260200160405190810160405280929190818152602001828054610b3a90611630565b8015610b875780601f10610b5c57610100808354040283529160200191610b87565b820191906000526020600020905b815481529060010190602001808311610b6a57829003601f168201915b5050505050905082565b6005602052806000526040600020600091509050806000018054610bb490611630565b80601f0160208091040260200160405190810160405280929190818152602001828054610be090611630565b8015610c2d5780601f10610c0257610100808354040283529160200191610c2d565b820191906000526020600020905b815481529060010190602001808311610c1057829003601f168201915b505050505090806001018054610c4290611630565b80601f0160208091040260200160405190810160405280929190818152602001828054610c6e90611630565b8015610cbb5780601f10610c9057610100808354040283529160200191610cbb565b820191906000526020600020905b815481529060010190602001808311610c9e57829003601f168201915b505050505090806002018054610cd090611630565b80601f0160208091040260200160405190810160405280929190818152602001828054610cfc90611630565b8015610d495780601f10610d1e57610100808354040283529160200191610d49565b820191906000526020600020905b815481529060010190602001808311610d2c57829003601f168201915b505050505090806003018054610d5e90611630565b80601f0160208091040260200160405190810160405280929190818152602001828054610d8a90611630565b8015610dd75780601f10610dac57610100808354040283529160200191610dd7565b820191906000526020600020905b815481529060010190602001808311610dba57829003601f168201915b505050505090806004018054610dec90611630565b80601f0160208091040260200160405190810160405280929190818152602001828054610e1890611630565b8015610e655780601f10610e3a57610100808354040283529160200191610e65565b820191906000526020600020905b815481529060010190602001808311610e4857829003601f168201915b5050505050908060050160009054906101000a900473ffffffffffffffffffffffffffffffffffffffff16908060060154905087565b6000600480549050905090565b828054610eb490611630565b90600052602060002090601f016020900481019282610ed65760008555610f1d565b82601f10610eef57805160ff1916838001178555610f1d565b82800160010185558215610f1d579182015b82811115610f1c578251825591602001919060010190610f01565b5b509050610f2a9190610f2e565b5090565b5b80821115610f47576000816000905550600101610f2f565b5090565b6000604051905090565b600080fd5b600080fd5b600073ffffffffffffffffffffffffffffffffffffffff82169050919050565b6000610f8a82610f5f565b9050919050565b610f9a81610f7f565b8114610fa557600080fd5b50565b600081359050610fb781610f91565b92915050565b600060208284031215610fd357610fd2610f55565b5b6000610fe184828501610fa8565b91505092915050565b60008115159050919050565b610fff81610fea565b82525050565b600060208201905061101a6000830184610ff6565b92915050565b600080fd5b600080fd5b6000601f19601f8301169050919050565b7f4e487b7100000000000000000000000000000000000000000000000000000000600052604160045260246000fd5b6110738261102a565b810181811067ffffffffffffffff821117156110925761109161103b565b5b80604052505050565b60006110a5610f4b565b90506110b1828261106a565b919050565b600067ffffffffffffffff8211156110d1576110d061103b565b5b6110da8261102a565b9050602081019050919050565b82818337600083830152505050565b6000611109611104846110b6565b61109b565b90508281526020810184848401111561112557611124611025565b5b6111308482856110e7565b509392505050565b600082601f83011261114d5761114c611020565b5b813561115d8482602086016110f6565b91505092915050565b600080600080600060a0868803121561118257611181610f55565b5b600086013567ffffffffffffffff8111156111a05761119f610f5a565b5b6111ac88828901611138565b955050602086013567ffffffffffffffff8111156111cd576111cc610f5a565b5b6111d988828901611138565b945050604086013567ffffffffffffffff8111156111fa576111f9610f5a565b5b61120688828901611138565b935050606086013567ffffffffffffffff81111561122757611226610f5a565b5b61123388828901611138565b925050608086013567ffffffffffffffff81111561125457611253610f5a565b5b61126088828901611138565b9150509295509295909350565b6000819050919050565b6112808161126d565b811461128b57600080fd5b50565b60008135905061129d81611277565b92915050565b6000602082840312156112b9576112b8610f55565b5b60006112c78482850161128e565b91505092915050565b6112d981610f7f565b82525050565b60006020820190506112f460008301846112d0565b92915050565b6113038161126d565b82525050565b600060208201905061131e60008301846112fa565b92915050565b60008060006060848603121561133d5761133c610f55565b5b600061134b86828701610fa8565b935050602084013567ffffffffffffffff81111561136c5761136b610f5a565b5b61137886828701611138565b925050604084013567ffffffffffffffff81111561139957611398610f5a565b5b6113a586828701611138565b9150509250925092565b600081519050919050565b600082825260208201905092915050565b60005b838110156113e95780820151818401526020810190506113ce565b838111156113f8576000848401525b50505050565b6000611409826113af565b61141381856113ba565b93506114238185602086016113cb565b61142c8161102a565b840191505092915050565b6000604082019050818103600083015261145181856113fe565b9050818103602083015261146581846113fe565b90509392505050565b600060e0820190508181036000830152611488818a6113fe565b9050818103602083015261149c81896113fe565b905081810360408301526114b081886113fe565b905081810360608301526114c481876113fe565b905081810360808301526114d881866113fe565b90506114e760a08301856112d0565b6114f460c08301846112fa565b98975050505050505050565b7f4e487b7100000000000000000000000000000000000000000000000000000000600052601160045260246000fd5b600061153a8261126d565b91506115458361126d565b9250827fffffffffffffffffffffffffffffffffffffffffffffffffffffffffffffffff0382111561157a57611579611500565b5b828201905092915050565b600060408201905061159a60008301856112d0565b6115a760208301846112fa565b9392505050565b600060808201905081810360008301526115c881876113fe565b905081810360208301526115dc81866113fe565b90506115eb60408301856112d0565b6115f860608301846112fa565b95945050505050565b7f4e487b7100000000000000000000000000000000000000000000000000000000600052602260045260246000fd5b6000600282049050600182168061164857607f821691505b6020821081141561165c5761165b611601565b5b5091905056fea26469706673582212204051ac10fe7f4996b67418e37ed535c76f7518dbefe0984e3d680d7288c836d364736f6c634300080a0033",
  "immutableReferences": {},
  "source": "pragma solidity 0.8.10;\r\n\r\n//  [x]  register voters\r\n//  [x]  get their votes\r\n//  [x]  ensure that they can't vote more than once\r\n//  [x]  ensure that the votes of the apirants are well appended\r\n\r\n\r\ncontract Vote {\r\n\r\n    //  address of the owner / admin/ deployer\r\n\r\n    address public owner;\r\n    \r\n    //  a map to store the number of votes submitted to each candidates\r\n    mapping(address => uint256) public candidates;\r\n\r\n\r\n    //  map to store candidates' registration state as true or false\r\n    mapping(address => bool)  registeredCandidates;\r\n\r\n    //   a struct to save the candidates registration data\r\n    struct CandidateRegistration {\r\n        string name;\r\n        string ipfsHash;\r\n    }\r\n\r\n    //  that saves the candidate data to their address\r\n    mapping(address => CandidateRegistration) public registeredCandidatesData;\r\n\r\n\r\n\r\n\r\n\r\n    //  a struct to save the voter's details on registration\r\n    struct ElectorateRegistration {\r\n\r\n        string FirstName;\r\n        string LastName;\r\n        string MiddleName;\r\n        string stateOfOrigin;\r\n        string NIN;\r\n        address registrantAddress;\r\n        uint256 timestamp;\r\n\r\n    }\r\n\r\n    //  an array of registered addresses\r\n    address[] public registeredAddresses; \r\n\r\n    //  mapping the registered user's details to their address\r\n    mapping(address => ElectorateRegistration) public electorates;\r\n\r\n\r\n    //  mapping marks addresses as registered\r\n    mapping(address => bool) public registered;\r\n\r\n    //  mapping that validates an electorates' vote \r\n    mapping(address => bool) public validateVote;\r\n\r\n\r\n     /////   Events\r\n    //  1. Registered event\r\n    //  2. Vote event\r\n\r\n    event Registered(string _firstname, string _lastName, address _address, uint256 _timestamp);\r\n    event VoteCandidate(address _candidate, uint256 _timestamp);\r\n\r\n\r\n     constructor () {\r\n\r\n        owner = msg.sender;\r\n    }\r\n\r\n    // declare a modifier that makes some functions to be exclusive to just the owner of the contract\r\n\r\n    modifier onlyOwner {\r\n        require(owner == msg.sender);\r\n        _;\r\n    }\r\n\r\n\r\n\r\n\r\n    function registerVoter(string memory _firstname, string memory _lastname, string memory _middlename, string memory _stateOfOrigin, string memory _nin) public returns(bool success) {\r\n\r\n        //  check if the address has been registered\r\n        require(!registered[msg.sender]);\r\n\r\n        //  if not registered, append the address to the array of registered users\r\n        registered[msg.sender] = true;\r\n        registeredAddresses.push(msg.sender);  \r\n\r\n        //  saving their registration details\r\n        electorates[msg.sender] = ElectorateRegistration(_firstname, _lastname, _middlename, _stateOfOrigin, _nin, msg.sender, block.timestamp);\r\n\r\n        //  emit registration event\r\n        emit Registered( _firstname, _lastname , msg.sender, block.timestamp);\r\n\r\n        return true;\r\n  \r\n    }\r\n\r\n    function voteCandidate(address _candidate) public returns(bool success) {\r\n\r\n        //  validate that this address is eligible for voting through registration\r\n        require(electorates[msg.sender].registrantAddress == msg.sender);\r\n\r\n        //  validate that this address hasn't voted\r\n        require(!validateVote[msg.sender]);\r\n\r\n\r\n        // validate that this candidate's address is not invalid and it is registered\r\n        require(_candidate != address(0));\r\n        require(registeredCandidates[_candidate]);\r\n        candidates[_candidate] += 1;\r\n\r\n        //  ensures that this address can't vote again\r\n        validateVote[msg.sender] = true;\r\n\r\n        //  emit event\r\n        emit VoteCandidate(_candidate, block.timestamp);\r\n\r\n        return true;\r\n    }\r\n\r\n    function noOfRegisteredVoters() public view returns (uint256) {\r\n        return registeredAddresses.length;\r\n    }\r\n\r\n\r\n    function registerCandidates(address _candidate, string memory _name , string memory _ipfsHash ) public onlyOwner {\r\n\r\n        // candidates can only be registered via the contract owner\r\n\r\n        require(_candidate != address(0));\r\n        require(!registeredCandidates[_candidate]);\r\n\r\n        registeredCandidatesData[_candidate] = CandidateRegistration(_name, _ipfsHash);\r\n        registeredCandidates[_candidate] = true;\r\n        \r\n    }\r\n\r\n   \r\n\r\n \r\n    \r\n}",
  "sourcePath": "C:\\Users\\Uju Nobei\\Documents\\Israel Linux\\blockchain\\DEVO smart contract\\contracts\\Vote.sol",
  "compiler": {
    "name": "solc",
    "version": "0.8.10+commit.fc410830.Emscripten.clang"
  },
  "schemaVersion": "3.4.3",
  "updatedAt": "2021-12-16T21:13:39.461Z",
  "networkType": "ethereum",
  "devdoc": {
    "kind": "dev",
    "methods": {},
    "version": 1
  },
  "userdoc": {
    "kind": "user",
    "methods": {},
    "version": 1
  }
}