{
  "contractName": "Vote",
  "abi": [
    {
      "inputs": [],
      "stateMutability": "nonpayable",
      "type": "constructor"
    },
    {
      "anonymous": false,
      "inputs": [
        {
          "indexed": false,
          "internalType": "address",
          "name": "_candidate",
          "type": "address"
        },
        {
          "indexed": false,
          "internalType": "string",
          "name": "_name",
          "type": "string"
        },
        {
          "indexed": false,
          "internalType": "string",
          "name": "_ipfsHash",
          "type": "string"
        }
      ],
      "name": "CandidateRegistered",
      "type": "event"
    },
    {
      "anonymous": false,
      "inputs": [
        {
          "indexed": false,
          "internalType": "string",
          "name": "_firstname",
          "type": "string"
        },
        {
          "indexed": false,
          "internalType": "string",
          "name": "_lastName",
          "type": "string"
        },
        {
          "indexed": false,
          "internalType": "address",
          "name": "_address",
          "type": "address"
        },
        {
          "indexed": false,
          "internalType": "uint256",
          "name": "_timestamp",
          "type": "uint256"
        }
      ],
      "name": "ElectorateRegistered",
      "type": "event"
    },
    {
      "anonymous": false,
      "inputs": [
        {
          "indexed": false,
          "internalType": "address",
          "name": "_candidate",
          "type": "address"
        },
        {
          "indexed": false,
          "internalType": "address",
          "name": "_electorate",
          "type": "address"
        },
        {
          "indexed": false,
          "internalType": "uint256",
          "name": "_timestamp",
          "type": "uint256"
        }
      ],
      "name": "VoteCandidate",
      "type": "event"
    },
    {
      "inputs": [
        {
          "internalType": "address",
          "name": "",
          "type": "address"
        }
      ],
      "name": "candidates",
      "outputs": [
        {
          "internalType": "uint256",
          "name": "",
          "type": "uint256"
        }
      ],
      "stateMutability": "view",
      "type": "function",
      "constant": true
    },
    {
      "inputs": [
        {
          "internalType": "address",
          "name": "",
          "type": "address"
        }
      ],
      "name": "electorates",
      "outputs": [
        {
          "internalType": "string",
          "name": "FirstName",
          "type": "string"
        },
        {
          "internalType": "string",
          "name": "LastName",
          "type": "string"
        },
        {
          "internalType": "string",
          "name": "MiddleName",
          "type": "string"
        },
        {
          "internalType": "string",
          "name": "stateOfOrigin",
          "type": "string"
        },
        {
          "internalType": "string",
          "name": "NIN",
          "type": "string"
        },
        {
          "internalType": "address",
          "name": "registrantAddress",
          "type": "address"
        },
        {
          "internalType": "uint256",
          "name": "timestamp",
          "type": "uint256"
        }
      ],
      "stateMutability": "view",
      "type": "function",
      "constant": true
    },
    {
      "inputs": [],
      "name": "owner",
      "outputs": [
        {
          "internalType": "address",
          "name": "",
          "type": "address"
        }
      ],
      "stateMutability": "view",
      "type": "function",
      "constant": true
    },
    {
      "inputs": [
        {
          "internalType": "address",
          "name": "",
          "type": "address"
        }
      ],
      "name": "registered",
      "outputs": [
        {
          "internalType": "bool",
          "name": "",
          "type": "bool"
        }
      ],
      "stateMutability": "view",
      "type": "function",
      "constant": true
    },
    {
      "inputs": [
        {
          "internalType": "uint256",
          "name": "",
          "type": "uint256"
        }
      ],
      "name": "registeredCandidatesArray",
      "outputs": [
        {
          "internalType": "string",
          "name": "name",
          "type": "string"
        },
        {
          "internalType": "string",
          "name": "ipfsHash",
          "type": "string"
        },
        {
          "internalType": "address",
          "name": "candidateAddress",
          "type": "address"
        }
      ],
      "stateMutability": "view",
      "type": "function",
      "constant": true
    },
    {
      "inputs": [
        {
          "internalType": "address",
          "name": "",
          "type": "address"
        }
      ],
      "name": "registeredCandidatesData",
      "outputs": [
        {
          "internalType": "string",
          "name": "name",
          "type": "string"
        },
        {
          "internalType": "string",
          "name": "ipfsHash",
          "type": "string"
        },
        {
          "internalType": "address",
          "name": "candidateAddress",
          "type": "address"
        }
      ],
      "stateMutability": "view",
      "type": "function",
      "constant": true
    },
    {
      "inputs": [
        {
          "internalType": "uint256",
          "name": "",
          "type": "uint256"
        }
      ],
      "name": "registeredElectoratesAddresses",
      "outputs": [
        {
          "internalType": "address",
          "name": "",
          "type": "address"
        }
      ],
      "stateMutability": "view",
      "type": "function",
      "constant": true
    },
    {
      "inputs": [
        {
          "internalType": "address",
          "name": "",
          "type": "address"
        }
      ],
      "name": "validateVote",
      "outputs": [
        {
          "internalType": "bool",
          "name": "",
          "type": "bool"
        }
      ],
      "stateMutability": "view",
      "type": "function",
      "constant": true
    },
    {
      "inputs": [
        {
          "internalType": "string",
          "name": "_firstname",
          "type": "string"
        },
        {
          "internalType": "string",
          "name": "_lastname",
          "type": "string"
        },
        {
          "internalType": "string",
          "name": "_middlename",
          "type": "string"
        },
        {
          "internalType": "string",
          "name": "_stateOfOrigin",
          "type": "string"
        },
        {
          "internalType": "string",
          "name": "_nin",
          "type": "string"
        }
      ],
      "name": "registerVoter",
      "outputs": [
        {
          "internalType": "bool",
          "name": "success",
          "type": "bool"
        }
      ],
      "stateMutability": "nonpayable",
      "type": "function"
    },
    {
      "inputs": [
        {
          "internalType": "address",
          "name": "_candidate",
          "type": "address"
        }
      ],
      "name": "voteCandidate",
      "outputs": [
        {
          "internalType": "bool",
          "name": "success",
          "type": "bool"
        }
      ],
      "stateMutability": "nonpayable",
      "type": "function"
    },
    {
      "inputs": [],
      "name": "noOfRegisteredVoters",
      "outputs": [
        {
          "internalType": "uint256",
          "name": "",
          "type": "uint256"
        }
      ],
      "stateMutability": "view",
      "type": "function",
      "constant": true
    },
    {
      "inputs": [
        {
          "internalType": "address",
          "name": "_candidate",
          "type": "address"
        },
        {
          "internalType": "string",
          "name": "_name",
          "type": "string"
        },
        {
          "internalType": "string",
          "name": "_ipfsHash",
          "type": "string"
        }
      ],
      "name": "registerCandidates",
      "outputs": [],
      "stateMutability": "nonpayable",
      "type": "function"
    },
    {
      "inputs": [],
      "name": "getAllCandidates",
      "outputs": [
        {
          "components": [
            {
              "internalType": "string",
              "name": "name",
              "type": "string"
            },
            {
              "internalType": "string",
              "name": "ipfsHash",
              "type": "string"
            },
            {
              "internalType": "address",
              "name": "candidateAddress",
              "type": "address"
            }
          ],
          "internalType": "struct Vote.CandidateRegistration[]",
          "name": "",
          "type": "tuple[]"
        }
      ],
      "stateMutability": "view",
      "type": "function",
      "constant": true
    }
  ],
  "bytecode": "0x608060405234801561001057600080fd5b50336000806101000a81548173ffffffffffffffffffffffffffffffffffffffff021916908373ffffffffffffffffffffffffffffffffffffffff160217905550611da8806100606000396000f3fe608060405234801561001057600080fd5b50600436106100cf5760003560e01c80638da5cb5b1161008c578063db34750211610066578063db3475021461024e578063e6896b0f1461027e578063e97a59d7146102b0578063f5061410146102e6576100cf565b80638da5cb5b146101e457806391d3d54414610202578063b2dd5c071461021e576100cf565b806326bb886d146100d45780632e6997fe146101045780634a3ae61d146101225780635a6ea770146101545780635ed5d2c3146101845780638ab66a90146101b4575b600080fd5b6100ee60048036038101906100e991906114d8565b610304565b6040516100fb9190611520565b60405180910390f35b61010c610522565b60405161011991906116fc565b60405180910390f35b61013c60048036038101906101379190611754565b6106fb565b60405161014b939291906117da565b60405180910390f35b61016e600480360381019061016991906114d8565b610865565b60405161017b9190611520565b60405180910390f35b61019e60048036038101906101999190611954565b610885565b6040516101ab9190611520565b60405180910390f35b6101ce60048036038101906101c991906114d8565b610af9565b6040516101db9190611a6a565b60405180910390f35b6101ec610b11565b6040516101f99190611a85565b60405180910390f35b61021c60048036038101906102179190611aa0565b610b35565b005b610238600480360381019061023391906114d8565b610e66565b6040516102459190611520565b60405180910390f35b61026860048036038101906102639190611754565b610e86565b6040516102759190611a85565b60405180910390f35b610298600480360381019061029391906114d8565b610ec5565b6040516102a7939291906117da565b60405180910390f35b6102ca60048036038101906102c591906114d8565b61101f565b6040516102dd9796959493929190611b2b565b60405180910390f35b6102ee611329565b6040516102fb9190611a6a565b60405180910390f35b60003373ffffffffffffffffffffffffffffffffffffffff16600660003373ffffffffffffffffffffffffffffffffffffffff1673ffffffffffffffffffffffffffffffffffffffff16815260200190815260200160002060050160009054906101000a900473ffffffffffffffffffffffffffffffffffffffff1673ffffffffffffffffffffffffffffffffffffffff16146103a057600080fd5b600073ffffffffffffffffffffffffffffffffffffffff168273ffffffffffffffffffffffffffffffffffffffff1614156103da57600080fd5b600260008373ffffffffffffffffffffffffffffffffffffffff1673ffffffffffffffffffffffffffffffffffffffff16815260200190815260200160002060009054906101000a900460ff1661043057600080fd5b60018060008473ffffffffffffffffffffffffffffffffffffffff1673ffffffffffffffffffffffffffffffffffffffff168152602001908152602001600020600082825461047f9190611bec565b925050819055506001600860003373ffffffffffffffffffffffffffffffffffffffff1673ffffffffffffffffffffffffffffffffffffffff16815260200190815260200160002060006101000a81548160ff0219169083151502179055507f3b3a13d341f1dcc09bb25c69c29d4687b50827aed5e9d7b676c5f5cb51569e3782334260405161051193929190611c42565b60405180910390a160019050919050565b60606005805480602002602001604051908101604052809291908181526020016000905b828210156106f2578382906000526020600020906003020160405180606001604052908160008201805461057990611ca8565b80601f01602080910402602001604051908101604052809291908181526020018280546105a590611ca8565b80156105f25780601f106105c7576101008083540402835291602001916105f2565b820191906000526020600020905b8154815290600101906020018083116105d557829003601f168201915b5050505050815260200160018201805461060b90611ca8565b80601f016020809104026020016040519081016040528092919081815260200182805461063790611ca8565b80156106845780601f1061065957610100808354040283529160200191610684565b820191906000526020600020905b81548152906001019060200180831161066757829003601f168201915b505050505081526020016002820160009054906101000a900473ffffffffffffffffffffffffffffffffffffffff1673ffffffffffffffffffffffffffffffffffffffff1673ffffffffffffffffffffffffffffffffffffffff168152505081526020019060010190610546565b50505050905090565b6005818154811061070b57600080fd5b906000526020600020906003020160009150905080600001805461072e90611ca8565b80601f016020809104026020016040519081016040528092919081815260200182805461075a90611ca8565b80156107a75780601f1061077c576101008083540402835291602001916107a7565b820191906000526020600020905b81548152906001019060200180831161078a57829003601f168201915b5050505050908060010180546107bc90611ca8565b80601f01602080910402602001604051908101604052809291908181526020018280546107e890611ca8565b80156108355780601f1061080a57610100808354040283529160200191610835565b820191906000526020600020905b81548152906001019060200180831161081857829003601f168201915b5050505050908060020160009054906101000a900473ffffffffffffffffffffffffffffffffffffffff16905083565b60086020528060005260406000206000915054906101000a900460ff1681565b60006001600760003373ffffffffffffffffffffffffffffffffffffffff1673ffffffffffffffffffffffffffffffffffffffff16815260200190815260200160002060006101000a81548160ff0219169083151502179055506004339080600181540180825580915050600190039060005260206000200160009091909190916101000a81548173ffffffffffffffffffffffffffffffffffffffff021916908373ffffffffffffffffffffffffffffffffffffffff1602179055506040518060e001604052808781526020018681526020018581526020018481526020018381526020013373ffffffffffffffffffffffffffffffffffffffff16815260200142815250600660003373ffffffffffffffffffffffffffffffffffffffff1673ffffffffffffffffffffffffffffffffffffffff16815260200190815260200160002060008201518160000190805190602001906109e6929190611336565b506020820151816001019080519060200190610a03929190611336565b506040820151816002019080519060200190610a20929190611336565b506060820151816003019080519060200190610a3d929190611336565b506080820151816004019080519060200190610a5a929190611336565b5060a08201518160050160006101000a81548173ffffffffffffffffffffffffffffffffffffffff021916908373ffffffffffffffffffffffffffffffffffffffff16021790555060c082015181600601559050507f5b4bc3316c5f99fec159455c323372bebfa9eb4a8451a1e3000241b390d8b0dd86863342604051610ae49493929190611cda565b60405180910390a16001905095945050505050565b60016020528060005260406000206000915090505481565b60008054906101000a900473ffffffffffffffffffffffffffffffffffffffff1681565b3373ffffffffffffffffffffffffffffffffffffffff1660008054906101000a900473ffffffffffffffffffffffffffffffffffffffff1673ffffffffffffffffffffffffffffffffffffffff1614610b8d57600080fd5b600073ffffffffffffffffffffffffffffffffffffffff168373ffffffffffffffffffffffffffffffffffffffff161415610bc757600080fd5b60405180606001604052808381526020018281526020018473ffffffffffffffffffffffffffffffffffffffff16815250600360008573ffffffffffffffffffffffffffffffffffffffff1673ffffffffffffffffffffffffffffffffffffffff1681526020019081526020016000206000820151816000019080519060200190610c53929190611336565b506020820151816001019080519060200190610c70929190611336565b5060408201518160020160006101000a81548173ffffffffffffffffffffffffffffffffffffffff021916908373ffffffffffffffffffffffffffffffffffffffff1602179055509050506005600360008573ffffffffffffffffffffffffffffffffffffffff1673ffffffffffffffffffffffffffffffffffffffff16815260200190815260200160002090806001815401808255809150506001900390600052602060002090600302016000909190919091506000820181600001908054610d3990611ca8565b610d449291906113bc565b506001820181600101908054610d5990611ca8565b610d649291906113bc565b506002820160009054906101000a900473ffffffffffffffffffffffffffffffffffffffff168160020160006101000a81548173ffffffffffffffffffffffffffffffffffffffff021916908373ffffffffffffffffffffffffffffffffffffffff16021790555050506001600260008573ffffffffffffffffffffffffffffffffffffffff1673ffffffffffffffffffffffffffffffffffffffff16815260200190815260200160002060006101000a81548160ff0219169083151502179055507f4f56d88836b720b9c3c946b2e9f5546b0162d4b9fa5b7957997d41433c5a90db838383604051610e5993929190611d2d565b60405180910390a1505050565b60076020528060005260406000206000915054906101000a900460ff1681565b60048181548110610e9657600080fd5b906000526020600020016000915054906101000a900473ffffffffffffffffffffffffffffffffffffffff1681565b6003602052806000526040600020600091509050806000018054610ee890611ca8565b80601f0160208091040260200160405190810160405280929190818152602001828054610f1490611ca8565b8015610f615780601f10610f3657610100808354040283529160200191610f61565b820191906000526020600020905b815481529060010190602001808311610f4457829003601f168201915b505050505090806001018054610f7690611ca8565b80601f0160208091040260200160405190810160405280929190818152602001828054610fa290611ca8565b8015610fef5780601f10610fc457610100808354040283529160200191610fef565b820191906000526020600020905b815481529060010190602001808311610fd257829003601f168201915b5050505050908060020160009054906101000a900473ffffffffffffffffffffffffffffffffffffffff16905083565b600660205280600052604060002060009150905080600001805461104290611ca8565b80601f016020809104026020016040519081016040528092919081815260200182805461106e90611ca8565b80156110bb5780601f10611090576101008083540402835291602001916110bb565b820191906000526020600020905b81548152906001019060200180831161109e57829003601f168201915b5050505050908060010180546110d090611ca8565b80601f01602080910402602001604051908101604052809291908181526020018280546110fc90611ca8565b80156111495780601f1061111e57610100808354040283529160200191611149565b820191906000526020600020905b81548152906001019060200180831161112c57829003601f168201915b50505050509080600201805461115e90611ca8565b80601f016020809104026020016040519081016040528092919081815260200182805461118a90611ca8565b80156111d75780601f106111ac576101008083540402835291602001916111d7565b820191906000526020600020905b8154815290600101906020018083116111ba57829003601f168201915b5050505050908060030180546111ec90611ca8565b80601f016020809104026020016040519081016040528092919081815260200182805461121890611ca8565b80156112655780601f1061123a57610100808354040283529160200191611265565b820191906000526020600020905b81548152906001019060200180831161124857829003601f168201915b50505050509080600401805461127a90611ca8565b80601f01602080910402602001604051908101604052809291908181526020018280546112a690611ca8565b80156112f35780601f106112c8576101008083540402835291602001916112f3565b820191906000526020600020905b8154815290600101906020018083116112d657829003601f168201915b5050505050908060050160009054906101000a900473ffffffffffffffffffffffffffffffffffffffff16908060060154905087565b6000600480549050905090565b82805461134290611ca8565b90600052602060002090601f01602090048101928261136457600085556113ab565b82601f1061137d57805160ff19168380011785556113ab565b828001600101855582156113ab579182015b828111156113aa57825182559160200191906001019061138f565b5b5090506113b89190611449565b5090565b8280546113c890611ca8565b90600052602060002090601f0160209004810192826113ea5760008555611438565b82601f106113fb5780548555611438565b8280016001018555821561143857600052602060002091601f016020900482015b8281111561143757825482559160010191906001019061141c565b5b5090506114459190611449565b5090565b5b8082111561146257600081600090555060010161144a565b5090565b6000604051905090565b600080fd5b600080fd5b600073ffffffffffffffffffffffffffffffffffffffff82169050919050565b60006114a58261147a565b9050919050565b6114b58161149a565b81146114c057600080fd5b50565b6000813590506114d2816114ac565b92915050565b6000602082840312156114ee576114ed611470565b5b60006114fc848285016114c3565b91505092915050565b60008115159050919050565b61151a81611505565b82525050565b60006020820190506115356000830184611511565b92915050565b600081519050919050565b600082825260208201905092915050565b6000819050602082019050919050565b600081519050919050565b600082825260208201905092915050565b60005b838110156115a1578082015181840152602081019050611586565b838111156115b0576000848401525b50505050565b6000601f19601f8301169050919050565b60006115d282611567565b6115dc8185611572565b93506115ec818560208601611583565b6115f5816115b6565b840191505092915050565b6116098161149a565b82525050565b6000606083016000830151848203600086015261162c82826115c7565b9150506020830151848203602086015261164682826115c7565b915050604083015161165b6040860182611600565b508091505092915050565b6000611672838361160f565b905092915050565b6000602082019050919050565b60006116928261153b565b61169c8185611546565b9350836020820285016116ae85611557565b8060005b858110156116ea57848403895281516116cb8582611666565b94506116d68361167a565b925060208a019950506001810190506116b2565b50829750879550505050505092915050565b600060208201905081810360008301526117168184611687565b905092915050565b6000819050919050565b6117318161171e565b811461173c57600080fd5b50565b60008135905061174e81611728565b92915050565b60006020828403121561176a57611769611470565b5b60006117788482850161173f565b91505092915050565b600082825260208201905092915050565b600061179d82611567565b6117a78185611781565b93506117b7818560208601611583565b6117c0816115b6565b840191505092915050565b6117d48161149a565b82525050565b600060608201905081810360008301526117f48186611792565b905081810360208301526118088185611792565b905061181760408301846117cb565b949350505050565b600080fd5b600080fd5b7f4e487b7100000000000000000000000000000000000000000000000000000000600052604160045260246000fd5b611861826115b6565b810181811067ffffffffffffffff821117156118805761187f611829565b5b80604052505050565b6000611893611466565b905061189f8282611858565b919050565b600067ffffffffffffffff8211156118bf576118be611829565b5b6118c8826115b6565b9050602081019050919050565b82818337600083830152505050565b60006118f76118f2846118a4565b611889565b90508281526020810184848401111561191357611912611824565b5b61191e8482856118d5565b509392505050565b600082601f83011261193b5761193a61181f565b5b813561194b8482602086016118e4565b91505092915050565b600080600080600060a086880312156119705761196f611470565b5b600086013567ffffffffffffffff81111561198e5761198d611475565b5b61199a88828901611926565b955050602086013567ffffffffffffffff8111156119bb576119ba611475565b5b6119c788828901611926565b945050604086013567ffffffffffffffff8111156119e8576119e7611475565b5b6119f488828901611926565b935050606086013567ffffffffffffffff811115611a1557611a14611475565b5b611a2188828901611926565b925050608086013567ffffffffffffffff811115611a4257611a41611475565b5b611a4e88828901611926565b9150509295509295909350565b611a648161171e565b82525050565b6000602082019050611a7f6000830184611a5b565b92915050565b6000602082019050611a9a60008301846117cb565b92915050565b600080600060608486031215611ab957611ab8611470565b5b6000611ac7868287016114c3565b935050602084013567ffffffffffffffff811115611ae857611ae7611475565b5b611af486828701611926565b925050604084013567ffffffffffffffff811115611b1557611b14611475565b5b611b2186828701611926565b9150509250925092565b600060e0820190508181036000830152611b45818a611792565b90508181036020830152611b598189611792565b90508181036040830152611b6d8188611792565b90508181036060830152611b818187611792565b90508181036080830152611b958186611792565b9050611ba460a08301856117cb565b611bb160c0830184611a5b565b98975050505050505050565b7f4e487b7100000000000000000000000000000000000000000000000000000000600052601160045260246000fd5b6000611bf78261171e565b9150611c028361171e565b9250827fffffffffffffffffffffffffffffffffffffffffffffffffffffffffffffffff03821115611c3757611c36611bbd565b5b828201905092915050565b6000606082019050611c5760008301866117cb565b611c6460208301856117cb565b611c716040830184611a5b565b949350505050565b7f4e487b7100000000000000000000000000000000000000000000000000000000600052602260045260246000fd5b60006002820490506001821680611cc057607f821691505b60208210811415611cd457611cd3611c79565b5b50919050565b60006080820190508181036000830152611cf48187611792565b90508181036020830152611d088186611792565b9050611d1760408301856117cb565b611d246060830184611a5b565b95945050505050565b6000606082019050611d4260008301866117cb565b8181036020830152611d548185611792565b90508181036040830152611d688184611792565b905094935050505056fea264697066735822122032ac6c625b3ca4c58bd9b87986b78aca4ff5a21329f397fa8af507fcc19173d364736f6c634300080a0033",
  "immutableReferences": {},
  "source": "pragma solidity 0.8.10;\r\n\r\n//  [x]  register voters\r\n//  [x]  get their votes\r\n//  [x]  ensure that they can't vote more than once\r\n//  [x]  ensure that the votes of the apirants are well appended\r\n\r\n\r\ncontract Vote {\r\n\r\n    //  address of the owner / admin/ deployer\r\n\r\n    address public owner;\r\n    \r\n    //  a map to store the number of votes submitted to each candidates\r\n    mapping(address => uint256) public candidates;\r\n\r\n\r\n    //  map to store candidates' registration state as true or false\r\n    mapping(address => bool)  registeredCandidates;\r\n\r\n    //   a struct to save the candidates registration data\r\n    struct CandidateRegistration {\r\n        string name;\r\n        string ipfsHash;\r\n        address candidateAddress;\r\n    }\r\n\r\n    //  that saves the candidate data to their address\r\n    mapping(address => CandidateRegistration) public registeredCandidatesData;\r\n\r\n\r\n\r\n\r\n\r\n    //  a struct to save the voter's details on registration\r\n    struct ElectorateRegistration {\r\n\r\n        string FirstName;\r\n        string LastName;\r\n        string MiddleName;\r\n        string stateOfOrigin;\r\n        string NIN;\r\n        address registrantAddress;\r\n        uint256 timestamp;\r\n\r\n    }\r\n\r\n    //  an array of registered electorates addresses\r\n    address[] public registeredElectoratesAddresses; \r\n\r\n\r\n    //  an array of registered candidates data\r\n    CandidateRegistration[] public registeredCandidatesArray;\r\n\r\n    //  mapping the registered user's details to their address\r\n    mapping(address => ElectorateRegistration) public electorates;\r\n\r\n\r\n    //  mapping marks addresses as registered\r\n    mapping(address => bool) public registered;\r\n\r\n    //  mapping that validates an electorates' vote \r\n    mapping(address => bool) public validateVote;\r\n\r\n\r\n     /////   Events\r\n    //  1. Registered event\r\n    //  2. Vote event\r\n\r\n    event ElectorateRegistered(string _firstname, string _lastName, address _address, uint256 _timestamp);\r\n    event VoteCandidate(address _candidate, address _electorate, uint256 _timestamp);\r\n    event CandidateRegistered(address _candidate, string _name, string _ipfsHash);\r\n\r\n\r\n     constructor () {\r\n\r\n        owner = msg.sender;\r\n    }\r\n\r\n    // declare a modifier that makes some functions to be exclusive to just the owner of the contract\r\n\r\n    modifier onlyOwner {\r\n        require(owner == msg.sender);\r\n        _;\r\n    }\r\n\r\n\r\n\r\n\r\n    function registerVoter(string memory _firstname, string memory _lastname, string memory _middlename, string memory _stateOfOrigin, string memory _nin) public returns(bool success) {\r\n\r\n        //  check if the address has been registered\r\n        //require(!registered[msg.sender]);\r\n\r\n        //  if not registered, append the address to the array of registered users\r\n        registered[msg.sender] = true;\r\n        registeredElectoratesAddresses.push(msg.sender);  \r\n\r\n        //  saving their registration details\r\n        electorates[msg.sender] = ElectorateRegistration(_firstname, _lastname, _middlename, _stateOfOrigin, _nin, msg.sender, block.timestamp);\r\n\r\n        //  emit registration event\r\n        emit ElectorateRegistered( _firstname, _lastname , msg.sender, block.timestamp);\r\n\r\n        return true;\r\n  \r\n    }\r\n\r\n    function voteCandidate(address _candidate) public returns(bool success) {\r\n\r\n        //  validate that this address is eligible for voting through registration\r\n        require(electorates[msg.sender].registrantAddress == msg.sender);\r\n\r\n        //  validate that this address hasn't voted\r\n        //require(!validateVote[msg.sender]);\r\n\r\n\r\n        // validate that this candidate's address is not invalid and it is registered\r\n        require(_candidate != address(0));\r\n        require(registeredCandidates[_candidate]);\r\n        candidates[_candidate] += 1;\r\n\r\n        //  ensures that this address can't vote again\r\n        validateVote[msg.sender] = true;\r\n\r\n        //  emit event\r\n        emit VoteCandidate(_candidate, msg.sender, block.timestamp);\r\n\r\n        return true;\r\n    }\r\n\r\n    function noOfRegisteredVoters() public view returns (uint256) {\r\n        return registeredElectoratesAddresses.length;\r\n    }\r\n\r\n\r\n    function registerCandidates(address _candidate, string memory _name , string memory _ipfsHash ) public onlyOwner {\r\n\r\n        // candidates can only be registered via the contract owner\r\n\r\n        require(_candidate != address(0));\r\n        //require(!registeredCandidates[_candidate]);\r\n\r\n        registeredCandidatesData[_candidate] = CandidateRegistration(_name, _ipfsHash, _candidate);\r\n\r\n        registeredCandidatesArray.push(registeredCandidatesData[_candidate]);\r\n\r\n        registeredCandidates[_candidate] = true;\r\n\r\n        emit CandidateRegistered(_candidate, _name, _ipfsHash);\r\n        \r\n    }\r\n\r\n    function getAllCandidates() public view returns (CandidateRegistration[] memory) {\r\n        return registeredCandidatesArray;\r\n    }\r\n\r\n   \r\n\r\n \r\n    \r\n}",
  "sourcePath": "C:\\Users\\Uju Nobei\\Documents\\Israel Linux\\blockchain\\DEVO smart contract\\contracts\\Vote.sol",
  "compiler": {
    "name": "solc",
    "version": "0.8.10+commit.fc410830.Emscripten.clang"
  },
  "schemaVersion": "3.4.3",
  "updatedAt": "2021-12-17T15:27:00.663Z",
  "networkType": "ethereum",
  "devdoc": {
    "kind": "dev",
    "methods": {},
    "version": 1
  },
  "userdoc": {
    "kind": "user",
    "methods": {},
    "version": 1
  }
}